{
  "_format": "hh-sol-artifact-1",
  "contractName": "ERC20Burnable",
  "sourceName": "contracts/ERC20/ERC20Burnable.sol",
  "abi": [
    {
      "anonymous": false,
      "inputs": [
        {
          "indexed": true,
          "internalType": "address",
          "name": "owner",
          "type": "address"
        },
        {
          "indexed": true,
          "internalType": "address",
          "name": "spender",
          "type": "address"
        },
        {
          "indexed": false,
          "internalType": "uint256",
          "name": "value",
          "type": "uint256"
        }
      ],
      "name": "Approval",
      "type": "event"
    },
    {
      "anonymous": false,
      "inputs": [
        {
          "indexed": true,
          "internalType": "address",
          "name": "from",
          "type": "address"
        },
        {
          "indexed": true,
          "internalType": "address",
          "name": "to",
          "type": "address"
        },
        {
          "indexed": false,
          "internalType": "uint256",
          "name": "value",
          "type": "uint256"
        }
      ],
      "name": "Transfer",
      "type": "event"
    },
    {
      "inputs": [
        {
          "internalType": "address",
          "name": "owner",
          "type": "address"
        },
        {
          "internalType": "address",
          "name": "spender",
          "type": "address"
        }
      ],
      "name": "allowance",
      "outputs": [
        {
          "internalType": "uint256",
          "name": "",
          "type": "uint256"
        }
      ],
      "stateMutability": "view",
      "type": "function"
    },
    {
      "inputs": [
        {
          "internalType": "address",
          "name": "spender",
          "type": "address"
        },
        {
          "internalType": "uint256",
          "name": "amount",
          "type": "uint256"
        }
      ],
      "name": "approve",
      "outputs": [
        {
          "internalType": "bool",
          "name": "",
          "type": "bool"
        }
      ],
      "stateMutability": "nonpayable",
      "type": "function"
    },
    {
      "inputs": [
        {
          "internalType": "address",
          "name": "account",
          "type": "address"
        }
      ],
      "name": "balanceOf",
      "outputs": [
        {
          "internalType": "uint256",
          "name": "",
          "type": "uint256"
        }
      ],
      "stateMutability": "view",
      "type": "function"
    },
    {
      "inputs": [
        {
          "internalType": "uint256",
          "name": "amount",
          "type": "uint256"
        }
      ],
      "name": "burn",
      "outputs": [],
      "stateMutability": "nonpayable",
      "type": "function"
    },
    {
      "inputs": [
        {
          "internalType": "address",
          "name": "account",
          "type": "address"
        },
        {
          "internalType": "uint256",
          "name": "amount",
          "type": "uint256"
        }
      ],
      "name": "burnFrom",
      "outputs": [],
      "stateMutability": "nonpayable",
      "type": "function"
    },
    {
      "inputs": [],
      "name": "decimals",
      "outputs": [
        {
          "internalType": "uint8",
          "name": "",
          "type": "uint8"
        }
      ],
      "stateMutability": "view",
      "type": "function"
    },
    {
      "inputs": [
        {
          "internalType": "address",
          "name": "spender",
          "type": "address"
        },
        {
          "internalType": "uint256",
          "name": "subtractedValue",
          "type": "uint256"
        }
      ],
      "name": "decreaseAllowance",
      "outputs": [
        {
          "internalType": "bool",
          "name": "",
          "type": "bool"
        }
      ],
      "stateMutability": "nonpayable",
      "type": "function"
    },
    {
      "inputs": [
        {
          "internalType": "address",
          "name": "spender",
          "type": "address"
        },
        {
          "internalType": "uint256",
          "name": "addedValue",
          "type": "uint256"
        }
      ],
      "name": "increaseAllowance",
      "outputs": [
        {
          "internalType": "bool",
          "name": "",
          "type": "bool"
        }
      ],
      "stateMutability": "nonpayable",
      "type": "function"
    },
    {
      "inputs": [
        {
          "internalType": "address",
          "name": "owner_",
          "type": "address"
        },
        {
          "internalType": "string",
          "name": "name_",
          "type": "string"
        },
        {
          "internalType": "string",
          "name": "symbol_",
          "type": "string"
        },
        {
          "internalType": "uint8",
          "name": "decimals_",
          "type": "uint8"
        },
        {
          "internalType": "uint256",
          "name": "totalSupply_",
          "type": "uint256"
        }
      ],
      "name": "init",
      "outputs": [],
      "stateMutability": "nonpayable",
      "type": "function"
    },
    {
      "inputs": [],
      "name": "name",
      "outputs": [
        {
          "internalType": "string",
          "name": "",
          "type": "string"
        }
      ],
      "stateMutability": "view",
      "type": "function"
    },
    {
      "inputs": [],
      "name": "symbol",
      "outputs": [
        {
          "internalType": "string",
          "name": "",
          "type": "string"
        }
      ],
      "stateMutability": "view",
      "type": "function"
    },
    {
      "inputs": [],
      "name": "totalSupply",
      "outputs": [
        {
          "internalType": "uint256",
          "name": "",
          "type": "uint256"
        }
      ],
      "stateMutability": "view",
      "type": "function"
    },
    {
      "inputs": [
        {
          "internalType": "address",
          "name": "to",
          "type": "address"
        },
        {
          "internalType": "uint256",
          "name": "amount",
          "type": "uint256"
        }
      ],
      "name": "transfer",
      "outputs": [
        {
          "internalType": "bool",
          "name": "",
          "type": "bool"
        }
      ],
      "stateMutability": "nonpayable",
      "type": "function"
    },
    {
      "inputs": [
        {
          "internalType": "address",
          "name": "from",
          "type": "address"
        },
        {
          "internalType": "address",
          "name": "to",
          "type": "address"
        },
        {
          "internalType": "uint256",
          "name": "amount",
          "type": "uint256"
        }
      ],
      "name": "transferFrom",
      "outputs": [
        {
          "internalType": "bool",
          "name": "",
          "type": "bool"
        }
      ],
      "stateMutability": "nonpayable",
      "type": "function"
    }
  ],
  "bytecode": "0x60806040526000600560016101000a81548160ff02191690831515021790555034801561002b57600080fd5b506001600560016101000a81548160ff021916908315150217905550611aca806100566000396000f3fe608060405234801561001057600080fd5b50600436106100ea5760003560e01c806370a082311161008c5780639cc850e8116100665780639cc850e81461025f578063a457c2d71461027b578063a9059cbb146102ab578063dd62ed3e146102db576100ea565b806370a08231146101f557806379cc67901461022557806395d89b4114610241576100ea565b806323b872dd116100c857806323b872dd1461015b578063313ce5671461018b57806339509351146101a957806342966c68146101d9576100ea565b806306fdde03146100ef578063095ea7b31461010d57806318160ddd1461013d575b600080fd5b6100f761030b565b6040516101049190610f70565b60405180910390f35b6101276004803603810190610122919061103a565b61039d565b6040516101349190611095565b60405180910390f35b6101456103c0565b60405161015291906110bf565b60405180910390f35b610175600480360381019061017091906110da565b6103ca565b6040516101829190611095565b60405180910390f35b6101936103f9565b6040516101a09190611149565b60405180910390f35b6101c360048036038101906101be919061103a565b610402565b6040516101d09190611095565b60405180910390f35b6101f360048036038101906101ee9190611164565b610439565b005b61020f600480360381019061020a9190611191565b61044d565b60405161021c91906110bf565b60405180910390f35b61023f600480360381019061023a919061103a565b610495565b005b6102496104b5565b6040516102569190610f70565b60405180910390f35b6102796004803603810190610274919061131f565b610547565b005b6102956004803603810190610290919061103a565b610652565b6040516102a29190611095565b60405180910390f35b6102c560048036038101906102c0919061103a565b6106c9565b6040516102d29190611095565b60405180910390f35b6102f560048036038101906102f091906113d2565b6106ec565b60405161030291906110bf565b60405180910390f35b60606003805461031a90611441565b80601f016020809104026020016040519081016040528092919081815260200182805461034690611441565b80156103935780601f1061036857610100808354040283529160200191610393565b820191906000526020600020905b81548152906001019060200180831161037657829003601f168201915b5050505050905090565b6000806103a8610773565b90506103b581858561077b565b600191505092915050565b6000600254905090565b6000806103d5610773565b90506103e2858285610946565b6103ed8585856109d2565b60019150509392505050565b60006012905090565b60008061040d610773565b905061042e81858561041f85896106ec565b61042991906114a2565b61077b565b600191505092915050565b61044a610444610773565b82610c53565b50565b60008060008373ffffffffffffffffffffffffffffffffffffffff1673ffffffffffffffffffffffffffffffffffffffff168152602001908152602001600020549050919050565b6104a7826104a1610773565b83610946565b6104b18282610c53565b5050565b6060600480546104c490611441565b80601f01602080910402602001604051908101604052809291908181526020018280546104f090611441565b801561053d5780601f106105125761010080835404028352916020019161053d565b820191906000526020600020905b81548152906001019060200180831161052057829003601f168201915b5050505050905090565b60001515600560019054906101000a900460ff1615151461059d576040517f08c379a000000000000000000000000000000000000000000000000000000000815260040161059490611544565b60405180910390fd5b83600390805190602001906105b3929190610e34565b5082600490805190602001906105ca929190610e34565b5081600560006101000a81548160ff021916908360ff160217905550806000808773ffffffffffffffffffffffffffffffffffffffff1673ffffffffffffffffffffffffffffffffffffffff16815260200190815260200160002081905550806002819055506001600560016101000a81548160ff0219169083151502179055505050505050565b60008061065d610773565b9050600061066b82866106ec565b9050838110156106b0576040517f08c379a00000000000000000000000000000000000000000000000000000000081526004016106a7906115d6565b60405180910390fd5b6106bd828686840361077b565b60019250505092915050565b6000806106d4610773565b90506106e18185856109d2565b600191505092915050565b6000600160008473ffffffffffffffffffffffffffffffffffffffff1673ffffffffffffffffffffffffffffffffffffffff16815260200190815260200160002060008373ffffffffffffffffffffffffffffffffffffffff1673ffffffffffffffffffffffffffffffffffffffff16815260200190815260200160002054905092915050565b600033905090565b600073ffffffffffffffffffffffffffffffffffffffff168373ffffffffffffffffffffffffffffffffffffffff1614156107eb576040517f08c379a00000000000000000000000000000000000000000000000000000000081526004016107e290611668565b60405180910390fd5b600073ffffffffffffffffffffffffffffffffffffffff168273ffffffffffffffffffffffffffffffffffffffff16141561085b576040517f08c379a0000000000000000000000000000000000000000000000000000000008152600401610852906116fa565b60405180910390fd5b80600160008573ffffffffffffffffffffffffffffffffffffffff1673ffffffffffffffffffffffffffffffffffffffff16815260200190815260200160002060008473ffffffffffffffffffffffffffffffffffffffff1673ffffffffffffffffffffffffffffffffffffffff168152602001908152602001600020819055508173ffffffffffffffffffffffffffffffffffffffff168373ffffffffffffffffffffffffffffffffffffffff167f8c5be1e5ebec7d5bd14f71427d1e84f3dd0314c0f7b2291e5b200ac8c7c3b9258360405161093991906110bf565b60405180910390a3505050565b600061095284846106ec565b90507fffffffffffffffffffffffffffffffffffffffffffffffffffffffffffffffff81146109cc57818110156109be576040517f08c379a00000000000000000000000000000000000000000000000000000000081526004016109b590611766565b60405180910390fd5b6109cb848484840361077b565b5b50505050565b600073ffffffffffffffffffffffffffffffffffffffff168373ffffffffffffffffffffffffffffffffffffffff161415610a42576040517f08c379a0000000000000000000000000000000000000000000000000000000008152600401610a39906117f8565b60405180910390fd5b600073ffffffffffffffffffffffffffffffffffffffff168273ffffffffffffffffffffffffffffffffffffffff161415610ab2576040517f08c379a0000000000000000000000000000000000000000000000000000000008152600401610aa99061188a565b60405180910390fd5b610abd838383610e2a565b60008060008573ffffffffffffffffffffffffffffffffffffffff1673ffffffffffffffffffffffffffffffffffffffff16815260200190815260200160002054905081811015610b43576040517f08c379a0000000000000000000000000000000000000000000000000000000008152600401610b3a9061191c565b60405180910390fd5b8181036000808673ffffffffffffffffffffffffffffffffffffffff1673ffffffffffffffffffffffffffffffffffffffff16815260200190815260200160002081905550816000808573ffffffffffffffffffffffffffffffffffffffff1673ffffffffffffffffffffffffffffffffffffffff1681526020019081526020016000206000828254610bd691906114a2565b925050819055508273ffffffffffffffffffffffffffffffffffffffff168473ffffffffffffffffffffffffffffffffffffffff167fddf252ad1be2c89b69c2b068fc378daa952ba7f163c4a11628f55a4df523b3ef84604051610c3a91906110bf565b60405180910390a3610c4d848484610e2f565b50505050565b600073ffffffffffffffffffffffffffffffffffffffff168273ffffffffffffffffffffffffffffffffffffffff161415610cc3576040517f08c379a0000000000000000000000000000000000000000000000000000000008152600401610cba906119ae565b60405180910390fd5b610ccf82600083610e2a565b60008060008473ffffffffffffffffffffffffffffffffffffffff1673ffffffffffffffffffffffffffffffffffffffff16815260200190815260200160002054905081811015610d55576040517f08c379a0000000000000000000000000000000000000000000000000000000008152600401610d4c90611a40565b60405180910390fd5b8181036000808573ffffffffffffffffffffffffffffffffffffffff1673ffffffffffffffffffffffffffffffffffffffff168152602001908152602001600020819055508160026000828254610dac9190611a60565b92505081905550600073ffffffffffffffffffffffffffffffffffffffff168373ffffffffffffffffffffffffffffffffffffffff167fddf252ad1be2c89b69c2b068fc378daa952ba7f163c4a11628f55a4df523b3ef84604051610e1191906110bf565b60405180910390a3610e2583600084610e2f565b505050565b505050565b505050565b828054610e4090611441565b90600052602060002090601f016020900481019282610e625760008555610ea9565b82601f10610e7b57805160ff1916838001178555610ea9565b82800160010185558215610ea9579182015b82811115610ea8578251825591602001919060010190610e8d565b5b509050610eb69190610eba565b5090565b5b80821115610ed3576000816000905550600101610ebb565b5090565b600081519050919050565b600082825260208201905092915050565b60005b83811015610f11578082015181840152602081019050610ef6565b83811115610f20576000848401525b50505050565b6000601f19601f8301169050919050565b6000610f4282610ed7565b610f4c8185610ee2565b9350610f5c818560208601610ef3565b610f6581610f26565b840191505092915050565b60006020820190508181036000830152610f8a8184610f37565b905092915050565b6000604051905090565b600080fd5b600080fd5b600073ffffffffffffffffffffffffffffffffffffffff82169050919050565b6000610fd182610fa6565b9050919050565b610fe181610fc6565b8114610fec57600080fd5b50565b600081359050610ffe81610fd8565b92915050565b6000819050919050565b61101781611004565b811461102257600080fd5b50565b6000813590506110348161100e565b92915050565b6000806040838503121561105157611050610f9c565b5b600061105f85828601610fef565b925050602061107085828601611025565b9150509250929050565b60008115159050919050565b61108f8161107a565b82525050565b60006020820190506110aa6000830184611086565b92915050565b6110b981611004565b82525050565b60006020820190506110d460008301846110b0565b92915050565b6000806000606084860312156110f3576110f2610f9c565b5b600061110186828701610fef565b935050602061111286828701610fef565b925050604061112386828701611025565b9150509250925092565b600060ff82169050919050565b6111438161112d565b82525050565b600060208201905061115e600083018461113a565b92915050565b60006020828403121561117a57611179610f9c565b5b600061118884828501611025565b91505092915050565b6000602082840312156111a7576111a6610f9c565b5b60006111b584828501610fef565b91505092915050565b600080fd5b600080fd5b7f4e487b7100000000000000000000000000000000000000000000000000000000600052604160045260246000fd5b61120082610f26565b810181811067ffffffffffffffff8211171561121f5761121e6111c8565b5b80604052505050565b6000611232610f92565b905061123e82826111f7565b919050565b600067ffffffffffffffff82111561125e5761125d6111c8565b5b61126782610f26565b9050602081019050919050565b82818337600083830152505050565b600061129661129184611243565b611228565b9050828152602081018484840111156112b2576112b16111c3565b5b6112bd848285611274565b509392505050565b600082601f8301126112da576112d96111be565b5b81356112ea848260208601611283565b91505092915050565b6112fc8161112d565b811461130757600080fd5b50565b600081359050611319816112f3565b92915050565b600080600080600060a0868803121561133b5761133a610f9c565b5b600061134988828901610fef565b955050602086013567ffffffffffffffff81111561136a57611369610fa1565b5b611376888289016112c5565b945050604086013567ffffffffffffffff81111561139757611396610fa1565b5b6113a3888289016112c5565b93505060606113b48882890161130a565b92505060806113c588828901611025565b9150509295509295909350565b600080604083850312156113e9576113e8610f9c565b5b60006113f785828601610fef565b925050602061140885828601610fef565b9150509250929050565b7f4e487b7100000000000000000000000000000000000000000000000000000000600052602260045260246000fd5b6000600282049050600182168061145957607f821691505b6020821081141561146d5761146c611412565b5b50919050565b7f4e487b7100000000000000000000000000000000000000000000000000000000600052601160045260246000fd5b60006114ad82611004565b91506114b883611004565b9250827fffffffffffffffffffffffffffffffffffffffffffffffffffffffffffffffff038211156114ed576114ec611473565b5b828201905092915050565b7f436f6e747261637420616c726561647920696e697469616c697a656400000000600082015250565b600061152e601c83610ee2565b9150611539826114f8565b602082019050919050565b6000602082019050818103600083015261155d81611521565b9050919050565b7f45524332303a2064656372656173656420616c6c6f77616e63652062656c6f7760008201527f207a65726f000000000000000000000000000000000000000000000000000000602082015250565b60006115c0602583610ee2565b91506115cb82611564565b604082019050919050565b600060208201905081810360008301526115ef816115b3565b9050919050565b7f45524332303a20617070726f76652066726f6d20746865207a65726f2061646460008201527f7265737300000000000000000000000000000000000000000000000000000000602082015250565b6000611652602483610ee2565b915061165d826115f6565b604082019050919050565b6000602082019050818103600083015261168181611645565b9050919050565b7f45524332303a20617070726f766520746f20746865207a65726f20616464726560008201527f7373000000000000000000000000000000000000000000000000000000000000602082015250565b60006116e4602283610ee2565b91506116ef82611688565b604082019050919050565b60006020820190508181036000830152611713816116d7565b9050919050565b7f45524332303a20696e73756666696369656e7420616c6c6f77616e6365000000600082015250565b6000611750601d83610ee2565b915061175b8261171a565b602082019050919050565b6000602082019050818103600083015261177f81611743565b9050919050565b7f45524332303a207472616e736665722066726f6d20746865207a65726f20616460008201527f6472657373000000000000000000000000000000000000000000000000000000602082015250565b60006117e2602583610ee2565b91506117ed82611786565b604082019050919050565b60006020820190508181036000830152611811816117d5565b9050919050565b7f45524332303a207472616e7366657220746f20746865207a65726f206164647260008201527f6573730000000000000000000000000000000000000000000000000000000000602082015250565b6000611874602383610ee2565b915061187f82611818565b604082019050919050565b600060208201905081810360008301526118a381611867565b9050919050565b7f45524332303a207472616e7366657220616d6f756e742065786365656473206260008201527f616c616e63650000000000000000000000000000000000000000000000000000602082015250565b6000611906602683610ee2565b9150611911826118aa565b604082019050919050565b60006020820190508181036000830152611935816118f9565b9050919050565b7f45524332303a206275726e2066726f6d20746865207a65726f2061646472657360008201527f7300000000000000000000000000000000000000000000000000000000000000602082015250565b6000611998602183610ee2565b91506119a38261193c565b604082019050919050565b600060208201905081810360008301526119c78161198b565b9050919050565b7f45524332303a206275726e20616d6f756e7420657863656564732062616c616e60008201527f6365000000000000000000000000000000000000000000000000000000000000602082015250565b6000611a2a602283610ee2565b9150611a35826119ce565b604082019050919050565b60006020820190508181036000830152611a5981611a1d565b9050919050565b6000611a6b82611004565b9150611a7683611004565b925082821015611a8957611a88611473565b5b82820390509291505056fea26469706673582212201d427ee8f124113710a5106ee65fab01ee97ddd99f34f7c2cfdeb26e271727ca64736f6c63430008090033",
  "linkReferences": {},
  "deployedLinkReferences": {}
}