{
  "_format": "hh-sol-artifact-1",
  "contractName": "ERC20AirDrop",
  "sourceName": "contracts/ERC20/ERC20AirDrop.sol",
  "abi": [
    {
      "anonymous": false,
      "inputs": [
        {
          "indexed": true,
          "internalType": "address",
          "name": "owner",
          "type": "address"
        },
        {
          "indexed": true,
          "internalType": "address",
          "name": "spender",
          "type": "address"
        },
        {
          "indexed": false,
          "internalType": "uint256",
          "name": "value",
          "type": "uint256"
        }
      ],
      "name": "Approval",
      "type": "event"
    },
    {
      "anonymous": false,
      "inputs": [
        {
          "indexed": true,
          "internalType": "address",
          "name": "previousOwner",
          "type": "address"
        },
        {
          "indexed": true,
          "internalType": "address",
          "name": "newOwner",
          "type": "address"
        }
      ],
      "name": "OwnershipTransferred",
      "type": "event"
    },
    {
      "anonymous": false,
      "inputs": [
        {
          "indexed": true,
          "internalType": "address",
          "name": "from",
          "type": "address"
        },
        {
          "indexed": true,
          "internalType": "address",
          "name": "to",
          "type": "address"
        },
        {
          "indexed": false,
          "internalType": "uint256",
          "name": "value",
          "type": "uint256"
        }
      ],
      "name": "Transfer",
      "type": "event"
    },
    {
      "inputs": [],
      "name": "_rewardAmount",
      "outputs": [
        {
          "internalType": "uint256",
          "name": "",
          "type": "uint256"
        }
      ],
      "stateMutability": "view",
      "type": "function"
    },
    {
      "inputs": [],
      "name": "_root",
      "outputs": [
        {
          "internalType": "bytes32",
          "name": "",
          "type": "bytes32"
        }
      ],
      "stateMutability": "view",
      "type": "function"
    },
    {
      "inputs": [
        {
          "internalType": "bytes32",
          "name": "root_",
          "type": "bytes32"
        },
        {
          "internalType": "uint256",
          "name": "rewardAmount_",
          "type": "uint256"
        }
      ],
      "name": "airDropTokens",
      "outputs": [],
      "stateMutability": "nonpayable",
      "type": "function"
    },
    {
      "inputs": [
        {
          "internalType": "address",
          "name": "owner",
          "type": "address"
        },
        {
          "internalType": "address",
          "name": "spender",
          "type": "address"
        }
      ],
      "name": "allowance",
      "outputs": [
        {
          "internalType": "uint256",
          "name": "",
          "type": "uint256"
        }
      ],
      "stateMutability": "view",
      "type": "function"
    },
    {
      "inputs": [
        {
          "internalType": "address",
          "name": "spender",
          "type": "address"
        },
        {
          "internalType": "uint256",
          "name": "amount",
          "type": "uint256"
        }
      ],
      "name": "approve",
      "outputs": [
        {
          "internalType": "bool",
          "name": "",
          "type": "bool"
        }
      ],
      "stateMutability": "nonpayable",
      "type": "function"
    },
    {
      "inputs": [
        {
          "internalType": "address",
          "name": "account",
          "type": "address"
        }
      ],
      "name": "balanceOf",
      "outputs": [
        {
          "internalType": "uint256",
          "name": "",
          "type": "uint256"
        }
      ],
      "stateMutability": "view",
      "type": "function"
    },
    {
      "inputs": [
        {
          "internalType": "uint256",
          "name": "amount",
          "type": "uint256"
        }
      ],
      "name": "burn",
      "outputs": [],
      "stateMutability": "nonpayable",
      "type": "function"
    },
    {
      "inputs": [
        {
          "internalType": "address",
          "name": "account",
          "type": "address"
        },
        {
          "internalType": "uint256",
          "name": "amount",
          "type": "uint256"
        }
      ],
      "name": "burnFrom",
      "outputs": [],
      "stateMutability": "nonpayable",
      "type": "function"
    },
    {
      "inputs": [
        {
          "internalType": "bytes32[]",
          "name": "proof_",
          "type": "bytes32[]"
        }
      ],
      "name": "claim",
      "outputs": [],
      "stateMutability": "nonpayable",
      "type": "function"
    },
    {
      "inputs": [],
      "name": "decimals",
      "outputs": [
        {
          "internalType": "uint8",
          "name": "",
          "type": "uint8"
        }
      ],
      "stateMutability": "view",
      "type": "function"
    },
    {
      "inputs": [
        {
          "internalType": "address",
          "name": "spender",
          "type": "address"
        },
        {
          "internalType": "uint256",
          "name": "subtractedValue",
          "type": "uint256"
        }
      ],
      "name": "decreaseAllowance",
      "outputs": [
        {
          "internalType": "bool",
          "name": "",
          "type": "bool"
        }
      ],
      "stateMutability": "nonpayable",
      "type": "function"
    },
    {
      "inputs": [
        {
          "internalType": "address",
          "name": "spender",
          "type": "address"
        },
        {
          "internalType": "uint256",
          "name": "addedValue",
          "type": "uint256"
        }
      ],
      "name": "increaseAllowance",
      "outputs": [
        {
          "internalType": "bool",
          "name": "",
          "type": "bool"
        }
      ],
      "stateMutability": "nonpayable",
      "type": "function"
    },
    {
      "inputs": [
        {
          "internalType": "address",
          "name": "owner_",
          "type": "address"
        }
      ],
      "name": "init",
      "outputs": [],
      "stateMutability": "nonpayable",
      "type": "function"
    },
    {
      "inputs": [
        {
          "internalType": "address",
          "name": "owner_",
          "type": "address"
        },
        {
          "internalType": "string",
          "name": "name_",
          "type": "string"
        },
        {
          "internalType": "string",
          "name": "symbol_",
          "type": "string"
        },
        {
          "internalType": "uint8",
          "name": "decimals_",
          "type": "uint8"
        },
        {
          "internalType": "uint256",
          "name": "totalSupply_",
          "type": "uint256"
        }
      ],
      "name": "init",
      "outputs": [],
      "stateMutability": "nonpayable",
      "type": "function"
    },
    {
      "inputs": [
        {
          "internalType": "address",
          "name": "to",
          "type": "address"
        },
        {
          "internalType": "uint256",
          "name": "amount",
          "type": "uint256"
        }
      ],
      "name": "mint",
      "outputs": [],
      "stateMutability": "nonpayable",
      "type": "function"
    },
    {
      "inputs": [],
      "name": "name",
      "outputs": [
        {
          "internalType": "string",
          "name": "",
          "type": "string"
        }
      ],
      "stateMutability": "view",
      "type": "function"
    },
    {
      "inputs": [],
      "name": "owner",
      "outputs": [
        {
          "internalType": "address",
          "name": "",
          "type": "address"
        }
      ],
      "stateMutability": "view",
      "type": "function"
    },
    {
      "inputs": [],
      "name": "renounceOwnership",
      "outputs": [],
      "stateMutability": "nonpayable",
      "type": "function"
    },
    {
      "inputs": [],
      "name": "symbol",
      "outputs": [
        {
          "internalType": "string",
          "name": "",
          "type": "string"
        }
      ],
      "stateMutability": "view",
      "type": "function"
    },
    {
      "inputs": [],
      "name": "totalSupply",
      "outputs": [
        {
          "internalType": "uint256",
          "name": "",
          "type": "uint256"
        }
      ],
      "stateMutability": "view",
      "type": "function"
    },
    {
      "inputs": [
        {
          "internalType": "address",
          "name": "to",
          "type": "address"
        },
        {
          "internalType": "uint256",
          "name": "amount",
          "type": "uint256"
        }
      ],
      "name": "transfer",
      "outputs": [
        {
          "internalType": "bool",
          "name": "",
          "type": "bool"
        }
      ],
      "stateMutability": "nonpayable",
      "type": "function"
    },
    {
      "inputs": [
        {
          "internalType": "address",
          "name": "from",
          "type": "address"
        },
        {
          "internalType": "address",
          "name": "to",
          "type": "address"
        },
        {
          "internalType": "uint256",
          "name": "amount",
          "type": "uint256"
        }
      ],
      "name": "transferFrom",
      "outputs": [
        {
          "internalType": "bool",
          "name": "",
          "type": "bool"
        }
      ],
      "stateMutability": "nonpayable",
      "type": "function"
    },
    {
      "inputs": [
        {
          "internalType": "address",
          "name": "newOwner",
          "type": "address"
        }
      ],
      "name": "transferOwnership",
      "outputs": [],
      "stateMutability": "nonpayable",
      "type": "function"
    }
  ],
  "bytecode": "0x60806040526000600560016101000a81548160ff02191690831515021790555034801561002b57600080fd5b506001600560016101000a81548160ff0219169083151502179055506126d9806100566000396000f3fe608060405234801561001057600080fd5b506004361061014d5760003560e01c8063715018a6116100c3578063a457c2d71161007c578063a457c2d714610378578063a9059cbb146103a8578063b391c508146103d8578063c61b5862146103f4578063dd62ed3e14610412578063f2fde38b146104425761014d565b8063715018a6146102de57806379cc6790146102e85780638da5cb5b1461030457806395d89b41146103225780639cc850e814610340578063a34cfdfc1461035c5761014d565b8063313ce56711610115578063313ce5671461020a578063395093511461022857806340c10f191461025857806342966c681461027457806349db98fa1461029057806370a08231146102ae5761014d565b806306fdde0314610152578063095ea7b31461017057806318160ddd146101a057806319ab453c146101be57806323b872dd146101da575b600080fd5b61015a61045e565b60405161016791906116eb565b60405180910390f35b61018a600480360381019061018591906117b5565b6104f0565b6040516101979190611810565b60405180910390f35b6101a8610513565b6040516101b5919061183a565b60405180910390f35b6101d860048036038101906101d39190611855565b61051d565b005b6101f460048036038101906101ef9190611882565b610529565b6040516102019190611810565b60405180910390f35b610212610558565b60405161021f91906118f1565b60405180910390f35b610242600480360381019061023d91906117b5565b610561565b60405161024f9190611810565b60405180910390f35b610272600480360381019061026d91906117b5565b610598565b005b61028e6004803603810190610289919061190c565b6105ae565b005b6102986105c2565b6040516102a5919061183a565b60405180910390f35b6102c860048036038101906102c39190611855565b6105c8565b6040516102d5919061183a565b60405180910390f35b6102e6610610565b005b61030260048036038101906102fd91906117b5565b610624565b005b61030c610644565b6040516103199190611948565b60405180910390f35b61032a61066e565b60405161033791906116eb565b60405180910390f35b61035a60048036038101906103559190611ac4565b610700565b005b61037660048036038101906103719190611bad565b61071d565b005b610392600480360381019061038d91906117b5565b610737565b60405161039f9190611810565b60405180910390f35b6103c260048036038101906103bd91906117b5565b6107ae565b6040516103cf9190611810565b60405180910390f35b6103f260048036038101906103ed9190611c4d565b6107d1565b005b6103fc61097f565b6040516104099190611ca9565b60405180910390f35b61042c60048036038101906104279190611cc4565b610985565b604051610439919061183a565b60405180910390f35b61045c60048036038101906104579190611855565b610a0c565b005b60606003805461046d90611d33565b80601f016020809104026020016040519081016040528092919081815260200182805461049990611d33565b80156104e65780601f106104bb576101008083540402835291602001916104e6565b820191906000526020600020905b8154815290600101906020018083116104c957829003601f168201915b5050505050905090565b6000806104fb610a90565b9050610508818585610a98565b600191505092915050565b6000600254905090565b61052681610c63565b50565b600080610534610a90565b9050610541858285610d29565b61054c858585610db5565b60019150509392505050565b60006012905090565b60008061056c610a90565b905061058d81858561057e8589610985565b6105889190611d94565b610a98565b600191505092915050565b6105a0611036565b6105aa82826110b4565b5050565b6105bf6105b9610a90565b82611214565b50565b60075481565b60008060008373ffffffffffffffffffffffffffffffffffffffff1673ffffffffffffffffffffffffffffffffffffffff168152602001908152602001600020549050919050565b610618611036565b6106226000610c63565b565b61063682610630610a90565b83610d29565b6106408282611214565b5050565b6000600560029054906101000a900473ffffffffffffffffffffffffffffffffffffffff16905090565b60606004805461067d90611d33565b80601f01602080910402602001604051908101604052809291908181526020018280546106a990611d33565b80156106f65780601f106106cb576101008083540402835291602001916106f6565b820191906000526020600020905b8154815290600101906020018083116106d957829003601f168201915b5050505050905090565b61070d85858585856113eb565b6107168561051d565b5050505050565b610725611036565b81600681905550806007819055505050565b600080610742610a90565b905060006107508286610985565b905083811015610795576040517f08c379a000000000000000000000000000000000000000000000000000000000815260040161078c90611e5c565b60405180910390fd5b6107a28286868403610a98565b60019250505092915050565b6000806107b9610a90565b90506107c6818585610db5565b600191505092915050565b600860003373ffffffffffffffffffffffffffffffffffffffff1673ffffffffffffffffffffffffffffffffffffffff16815260200190815260200160002060009054906101000a900460ff161561085e576040517f08c379a000000000000000000000000000000000000000000000000000000000815260040161085590611ec8565b60405180910390fd5b6001600860003373ffffffffffffffffffffffffffffffffffffffff1673ffffffffffffffffffffffffffffffffffffffff16815260200190815260200160002060006101000a81548160ff0219169083151502179055506000336040516020016108c99190611f30565b60405160208183030381529060405280519060200120905061092f838380806020026020016040519081016040528093929190818152602001838360200280828437600081840152601f19601f82011690508083019250505050505050600654836114f6565b61096e576040517f08c379a000000000000000000000000000000000000000000000000000000000815260040161096590611f97565b60405180910390fd5b61097a336007546110b4565b505050565b60065481565b6000600160008473ffffffffffffffffffffffffffffffffffffffff1673ffffffffffffffffffffffffffffffffffffffff16815260200190815260200160002060008373ffffffffffffffffffffffffffffffffffffffff1673ffffffffffffffffffffffffffffffffffffffff16815260200190815260200160002054905092915050565b610a14611036565b600073ffffffffffffffffffffffffffffffffffffffff168173ffffffffffffffffffffffffffffffffffffffff161415610a84576040517f08c379a0000000000000000000000000000000000000000000000000000000008152600401610a7b90612029565b60405180910390fd5b610a8d81610c63565b50565b600033905090565b600073ffffffffffffffffffffffffffffffffffffffff168373ffffffffffffffffffffffffffffffffffffffff161415610b08576040517f08c379a0000000000000000000000000000000000000000000000000000000008152600401610aff906120bb565b60405180910390fd5b600073ffffffffffffffffffffffffffffffffffffffff168273ffffffffffffffffffffffffffffffffffffffff161415610b78576040517f08c379a0000000000000000000000000000000000000000000000000000000008152600401610b6f9061214d565b60405180910390fd5b80600160008573ffffffffffffffffffffffffffffffffffffffff1673ffffffffffffffffffffffffffffffffffffffff16815260200190815260200160002060008473ffffffffffffffffffffffffffffffffffffffff1673ffffffffffffffffffffffffffffffffffffffff168152602001908152602001600020819055508173ffffffffffffffffffffffffffffffffffffffff168373ffffffffffffffffffffffffffffffffffffffff167f8c5be1e5ebec7d5bd14f71427d1e84f3dd0314c0f7b2291e5b200ac8c7c3b92583604051610c56919061183a565b60405180910390a3505050565b6000600560029054906101000a900473ffffffffffffffffffffffffffffffffffffffff16905081600560026101000a81548173ffffffffffffffffffffffffffffffffffffffff021916908373ffffffffffffffffffffffffffffffffffffffff1602179055508173ffffffffffffffffffffffffffffffffffffffff168173ffffffffffffffffffffffffffffffffffffffff167f8be0079c531659141344cd1fd0a4f28419497f9722a3daafe3b4186f6b6457e060405160405180910390a35050565b6000610d358484610985565b90507fffffffffffffffffffffffffffffffffffffffffffffffffffffffffffffffff8114610daf5781811015610da1576040517f08c379a0000000000000000000000000000000000000000000000000000000008152600401610d98906121b9565b60405180910390fd5b610dae8484848403610a98565b5b50505050565b600073ffffffffffffffffffffffffffffffffffffffff168373ffffffffffffffffffffffffffffffffffffffff161415610e25576040517f08c379a0000000000000000000000000000000000000000000000000000000008152600401610e1c9061224b565b60405180910390fd5b600073ffffffffffffffffffffffffffffffffffffffff168273ffffffffffffffffffffffffffffffffffffffff161415610e95576040517f08c379a0000000000000000000000000000000000000000000000000000000008152600401610e8c906122dd565b60405180910390fd5b610ea083838361150d565b60008060008573ffffffffffffffffffffffffffffffffffffffff1673ffffffffffffffffffffffffffffffffffffffff16815260200190815260200160002054905081811015610f26576040517f08c379a0000000000000000000000000000000000000000000000000000000008152600401610f1d9061236f565b60405180910390fd5b8181036000808673ffffffffffffffffffffffffffffffffffffffff1673ffffffffffffffffffffffffffffffffffffffff16815260200190815260200160002081905550816000808573ffffffffffffffffffffffffffffffffffffffff1673ffffffffffffffffffffffffffffffffffffffff1681526020019081526020016000206000828254610fb99190611d94565b925050819055508273ffffffffffffffffffffffffffffffffffffffff168473ffffffffffffffffffffffffffffffffffffffff167fddf252ad1be2c89b69c2b068fc378daa952ba7f163c4a11628f55a4df523b3ef8460405161101d919061183a565b60405180910390a3611030848484611512565b50505050565b61103e610a90565b73ffffffffffffffffffffffffffffffffffffffff1661105c610644565b73ffffffffffffffffffffffffffffffffffffffff16146110b2576040517f08c379a00000000000000000000000000000000000000000000000000000000081526004016110a9906123db565b60405180910390fd5b565b600073ffffffffffffffffffffffffffffffffffffffff168273ffffffffffffffffffffffffffffffffffffffff161415611124576040517f08c379a000000000000000000000000000000000000000000000000000000000815260040161111b90612447565b60405180910390fd5b6111306000838361150d565b80600260008282546111429190611d94565b92505081905550806000808473ffffffffffffffffffffffffffffffffffffffff1673ffffffffffffffffffffffffffffffffffffffff16815260200190815260200160002060008282546111979190611d94565b925050819055508173ffffffffffffffffffffffffffffffffffffffff16600073ffffffffffffffffffffffffffffffffffffffff167fddf252ad1be2c89b69c2b068fc378daa952ba7f163c4a11628f55a4df523b3ef836040516111fc919061183a565b60405180910390a361121060008383611512565b5050565b600073ffffffffffffffffffffffffffffffffffffffff168273ffffffffffffffffffffffffffffffffffffffff161415611284576040517f08c379a000000000000000000000000000000000000000000000000000000000815260040161127b906124d9565b60405180910390fd5b6112908260008361150d565b60008060008473ffffffffffffffffffffffffffffffffffffffff1673ffffffffffffffffffffffffffffffffffffffff16815260200190815260200160002054905081811015611316576040517f08c379a000000000000000000000000000000000000000000000000000000000815260040161130d9061256b565b60405180910390fd5b8181036000808573ffffffffffffffffffffffffffffffffffffffff1673ffffffffffffffffffffffffffffffffffffffff16815260200190815260200160002081905550816002600082825461136d919061258b565b92505081905550600073ffffffffffffffffffffffffffffffffffffffff168373ffffffffffffffffffffffffffffffffffffffff167fddf252ad1be2c89b69c2b068fc378daa952ba7f163c4a11628f55a4df523b3ef846040516113d2919061183a565b60405180910390a36113e683600084611512565b505050565b60001515600560019054906101000a900460ff16151514611441576040517f08c379a00000000000000000000000000000000000000000000000000000000081526004016114389061260b565b60405180910390fd5b83600390805190602001906114579291906115af565b50826004908051906020019061146e9291906115af565b5081600560006101000a81548160ff021916908360ff160217905550806000808773ffffffffffffffffffffffffffffffffffffffff1673ffffffffffffffffffffffffffffffffffffffff16815260200190815260200160002081905550806002819055506001600560016101000a81548160ff0219169083151502179055505050505050565b6000826115038584611517565b1490509392505050565b505050565b505050565b60008082905060005b84518110156115625761154d828683815181106115405761153f61262b565b5b602002602001015161156d565b9150808061155a9061265a565b915050611520565b508091505092915050565b6000818310611585576115808284611598565b611590565b61158f8383611598565b5b905092915050565b600082600052816020526040600020905092915050565b8280546115bb90611d33565b90600052602060002090601f0160209004810192826115dd5760008555611624565b82601f106115f657805160ff1916838001178555611624565b82800160010185558215611624579182015b82811115611623578251825591602001919060010190611608565b5b5090506116319190611635565b5090565b5b8082111561164e576000816000905550600101611636565b5090565b600081519050919050565b600082825260208201905092915050565b60005b8381101561168c578082015181840152602081019050611671565b8381111561169b576000848401525b50505050565b6000601f19601f8301169050919050565b60006116bd82611652565b6116c7818561165d565b93506116d781856020860161166e565b6116e0816116a1565b840191505092915050565b6000602082019050818103600083015261170581846116b2565b905092915050565b6000604051905090565b600080fd5b600080fd5b600073ffffffffffffffffffffffffffffffffffffffff82169050919050565b600061174c82611721565b9050919050565b61175c81611741565b811461176757600080fd5b50565b60008135905061177981611753565b92915050565b6000819050919050565b6117928161177f565b811461179d57600080fd5b50565b6000813590506117af81611789565b92915050565b600080604083850312156117cc576117cb611717565b5b60006117da8582860161176a565b92505060206117eb858286016117a0565b9150509250929050565b60008115159050919050565b61180a816117f5565b82525050565b60006020820190506118256000830184611801565b92915050565b6118348161177f565b82525050565b600060208201905061184f600083018461182b565b92915050565b60006020828403121561186b5761186a611717565b5b60006118798482850161176a565b91505092915050565b60008060006060848603121561189b5761189a611717565b5b60006118a98682870161176a565b93505060206118ba8682870161176a565b92505060406118cb868287016117a0565b9150509250925092565b600060ff82169050919050565b6118eb816118d5565b82525050565b600060208201905061190660008301846118e2565b92915050565b60006020828403121561192257611921611717565b5b6000611930848285016117a0565b91505092915050565b61194281611741565b82525050565b600060208201905061195d6000830184611939565b92915050565b600080fd5b600080fd5b7f4e487b7100000000000000000000000000000000000000000000000000000000600052604160045260246000fd5b6119a5826116a1565b810181811067ffffffffffffffff821117156119c4576119c361196d565b5b80604052505050565b60006119d761170d565b90506119e3828261199c565b919050565b600067ffffffffffffffff821115611a0357611a0261196d565b5b611a0c826116a1565b9050602081019050919050565b82818337600083830152505050565b6000611a3b611a36846119e8565b6119cd565b905082815260208101848484011115611a5757611a56611968565b5b611a62848285611a19565b509392505050565b600082601f830112611a7f57611a7e611963565b5b8135611a8f848260208601611a28565b91505092915050565b611aa1816118d5565b8114611aac57600080fd5b50565b600081359050611abe81611a98565b92915050565b600080600080600060a08688031215611ae057611adf611717565b5b6000611aee8882890161176a565b955050602086013567ffffffffffffffff811115611b0f57611b0e61171c565b5b611b1b88828901611a6a565b945050604086013567ffffffffffffffff811115611b3c57611b3b61171c565b5b611b4888828901611a6a565b9350506060611b5988828901611aaf565b9250506080611b6a888289016117a0565b9150509295509295909350565b6000819050919050565b611b8a81611b77565b8114611b9557600080fd5b50565b600081359050611ba781611b81565b92915050565b60008060408385031215611bc457611bc3611717565b5b6000611bd285828601611b98565b9250506020611be3858286016117a0565b9150509250929050565b600080fd5b600080fd5b60008083601f840112611c0d57611c0c611963565b5b8235905067ffffffffffffffff811115611c2a57611c29611bed565b5b602083019150836020820283011115611c4657611c45611bf2565b5b9250929050565b60008060208385031215611c6457611c63611717565b5b600083013567ffffffffffffffff811115611c8257611c8161171c565b5b611c8e85828601611bf7565b92509250509250929050565b611ca381611b77565b82525050565b6000602082019050611cbe6000830184611c9a565b92915050565b60008060408385031215611cdb57611cda611717565b5b6000611ce98582860161176a565b9250506020611cfa8582860161176a565b9150509250929050565b7f4e487b7100000000000000000000000000000000000000000000000000000000600052602260045260246000fd5b60006002820490506001821680611d4b57607f821691505b60208210811415611d5f57611d5e611d04565b5b50919050565b7f4e487b7100000000000000000000000000000000000000000000000000000000600052601160045260246000fd5b6000611d9f8261177f565b9150611daa8361177f565b9250827fffffffffffffffffffffffffffffffffffffffffffffffffffffffffffffffff03821115611ddf57611dde611d65565b5b828201905092915050565b7f45524332303a2064656372656173656420616c6c6f77616e63652062656c6f7760008201527f207a65726f000000000000000000000000000000000000000000000000000000602082015250565b6000611e4660258361165d565b9150611e5182611dea565b604082019050919050565b60006020820190508181036000830152611e7581611e39565b9050919050565b7f416c726561647920636c61696d6564206169722064726f700000000000000000600082015250565b6000611eb260188361165d565b9150611ebd82611e7c565b602082019050919050565b60006020820190508181036000830152611ee181611ea5565b9050919050565b60008160601b9050919050565b6000611f0082611ee8565b9050919050565b6000611f1282611ef5565b9050919050565b611f2a611f2582611741565b611f07565b82525050565b6000611f3c8284611f19565b60148201915081905092915050565b7f496e636f7272656374206d65726b6c652070726f6f6600000000000000000000600082015250565b6000611f8160168361165d565b9150611f8c82611f4b565b602082019050919050565b60006020820190508181036000830152611fb081611f74565b9050919050565b7f4f776e61626c653a206e6577206f776e657220697320746865207a65726f206160008201527f6464726573730000000000000000000000000000000000000000000000000000602082015250565b600061201360268361165d565b915061201e82611fb7565b604082019050919050565b6000602082019050818103600083015261204281612006565b9050919050565b7f45524332303a20617070726f76652066726f6d20746865207a65726f2061646460008201527f7265737300000000000000000000000000000000000000000000000000000000602082015250565b60006120a560248361165d565b91506120b082612049565b604082019050919050565b600060208201905081810360008301526120d481612098565b9050919050565b7f45524332303a20617070726f766520746f20746865207a65726f20616464726560008201527f7373000000000000000000000000000000000000000000000000000000000000602082015250565b600061213760228361165d565b9150612142826120db565b604082019050919050565b600060208201905081810360008301526121668161212a565b9050919050565b7f45524332303a20696e73756666696369656e7420616c6c6f77616e6365000000600082015250565b60006121a3601d8361165d565b91506121ae8261216d565b602082019050919050565b600060208201905081810360008301526121d281612196565b9050919050565b7f45524332303a207472616e736665722066726f6d20746865207a65726f20616460008201527f6472657373000000000000000000000000000000000000000000000000000000602082015250565b600061223560258361165d565b9150612240826121d9565b604082019050919050565b6000602082019050818103600083015261226481612228565b9050919050565b7f45524332303a207472616e7366657220746f20746865207a65726f206164647260008201527f6573730000000000000000000000000000000000000000000000000000000000602082015250565b60006122c760238361165d565b91506122d28261226b565b604082019050919050565b600060208201905081810360008301526122f6816122ba565b9050919050565b7f45524332303a207472616e7366657220616d6f756e742065786365656473206260008201527f616c616e63650000000000000000000000000000000000000000000000000000602082015250565b600061235960268361165d565b9150612364826122fd565b604082019050919050565b600060208201905081810360008301526123888161234c565b9050919050565b7f4f776e61626c653a2063616c6c6572206973206e6f7420746865206f776e6572600082015250565b60006123c560208361165d565b91506123d08261238f565b602082019050919050565b600060208201905081810360008301526123f4816123b8565b9050919050565b7f45524332303a206d696e7420746f20746865207a65726f206164647265737300600082015250565b6000612431601f8361165d565b915061243c826123fb565b602082019050919050565b6000602082019050818103600083015261246081612424565b9050919050565b7f45524332303a206275726e2066726f6d20746865207a65726f2061646472657360008201527f7300000000000000000000000000000000000000000000000000000000000000602082015250565b60006124c360218361165d565b91506124ce82612467565b604082019050919050565b600060208201905081810360008301526124f2816124b6565b9050919050565b7f45524332303a206275726e20616d6f756e7420657863656564732062616c616e60008201527f6365000000000000000000000000000000000000000000000000000000000000602082015250565b600061255560228361165d565b9150612560826124f9565b604082019050919050565b6000602082019050818103600083015261258481612548565b9050919050565b60006125968261177f565b91506125a18361177f565b9250828210156125b4576125b3611d65565b5b828203905092915050565b7f436f6e747261637420616c726561647920696e697469616c697a656400000000600082015250565b60006125f5601c8361165d565b9150612600826125bf565b602082019050919050565b60006020820190508181036000830152612624816125e8565b9050919050565b7f4e487b7100000000000000000000000000000000000000000000000000000000600052603260045260246000fd5b60006126658261177f565b91507fffffffffffffffffffffffffffffffffffffffffffffffffffffffffffffffff82141561269857612697611d65565b5b60018201905091905056fea264697066735822122017d99e26b6ac371c3c851372c1f46cf75958ce8c48556f14368782367aad91dc64736f6c63430008090033",
  "linkReferences": {},
  "deployedLinkReferences": {}
}