{
  "_format": "hh-sol-artifact-1",
  "contractName": "ERC20Pausable",
  "sourceName": "contracts/ERC20/ERC20Pausable.sol",
  "abi": [
    {
      "anonymous": false,
      "inputs": [
        {
          "indexed": true,
          "internalType": "address",
          "name": "owner",
          "type": "address"
        },
        {
          "indexed": true,
          "internalType": "address",
          "name": "spender",
          "type": "address"
        },
        {
          "indexed": false,
          "internalType": "uint256",
          "name": "value",
          "type": "uint256"
        }
      ],
      "name": "Approval",
      "type": "event"
    },
    {
      "anonymous": false,
      "inputs": [
        {
          "indexed": true,
          "internalType": "address",
          "name": "previousOwner",
          "type": "address"
        },
        {
          "indexed": true,
          "internalType": "address",
          "name": "newOwner",
          "type": "address"
        }
      ],
      "name": "OwnershipTransferred",
      "type": "event"
    },
    {
      "anonymous": false,
      "inputs": [
        {
          "indexed": false,
          "internalType": "address",
          "name": "account",
          "type": "address"
        }
      ],
      "name": "Paused",
      "type": "event"
    },
    {
      "anonymous": false,
      "inputs": [
        {
          "indexed": true,
          "internalType": "address",
          "name": "from",
          "type": "address"
        },
        {
          "indexed": true,
          "internalType": "address",
          "name": "to",
          "type": "address"
        },
        {
          "indexed": false,
          "internalType": "uint256",
          "name": "value",
          "type": "uint256"
        }
      ],
      "name": "Transfer",
      "type": "event"
    },
    {
      "anonymous": false,
      "inputs": [
        {
          "indexed": false,
          "internalType": "address",
          "name": "account",
          "type": "address"
        }
      ],
      "name": "Unpaused",
      "type": "event"
    },
    {
      "inputs": [
        {
          "internalType": "address",
          "name": "owner",
          "type": "address"
        },
        {
          "internalType": "address",
          "name": "spender",
          "type": "address"
        }
      ],
      "name": "allowance",
      "outputs": [
        {
          "internalType": "uint256",
          "name": "",
          "type": "uint256"
        }
      ],
      "stateMutability": "view",
      "type": "function"
    },
    {
      "inputs": [
        {
          "internalType": "address",
          "name": "spender",
          "type": "address"
        },
        {
          "internalType": "uint256",
          "name": "amount",
          "type": "uint256"
        }
      ],
      "name": "approve",
      "outputs": [
        {
          "internalType": "bool",
          "name": "",
          "type": "bool"
        }
      ],
      "stateMutability": "nonpayable",
      "type": "function"
    },
    {
      "inputs": [
        {
          "internalType": "address",
          "name": "account",
          "type": "address"
        }
      ],
      "name": "balanceOf",
      "outputs": [
        {
          "internalType": "uint256",
          "name": "",
          "type": "uint256"
        }
      ],
      "stateMutability": "view",
      "type": "function"
    },
    {
      "inputs": [],
      "name": "decimals",
      "outputs": [
        {
          "internalType": "uint8",
          "name": "",
          "type": "uint8"
        }
      ],
      "stateMutability": "view",
      "type": "function"
    },
    {
      "inputs": [
        {
          "internalType": "address",
          "name": "spender",
          "type": "address"
        },
        {
          "internalType": "uint256",
          "name": "subtractedValue",
          "type": "uint256"
        }
      ],
      "name": "decreaseAllowance",
      "outputs": [
        {
          "internalType": "bool",
          "name": "",
          "type": "bool"
        }
      ],
      "stateMutability": "nonpayable",
      "type": "function"
    },
    {
      "inputs": [
        {
          "internalType": "address",
          "name": "spender",
          "type": "address"
        },
        {
          "internalType": "uint256",
          "name": "addedValue",
          "type": "uint256"
        }
      ],
      "name": "increaseAllowance",
      "outputs": [
        {
          "internalType": "bool",
          "name": "",
          "type": "bool"
        }
      ],
      "stateMutability": "nonpayable",
      "type": "function"
    },
    {
      "inputs": [
        {
          "internalType": "address",
          "name": "owner_",
          "type": "address"
        }
      ],
      "name": "init",
      "outputs": [],
      "stateMutability": "nonpayable",
      "type": "function"
    },
    {
      "inputs": [
        {
          "internalType": "address",
          "name": "owner_",
          "type": "address"
        },
        {
          "internalType": "string",
          "name": "name_",
          "type": "string"
        },
        {
          "internalType": "string",
          "name": "symbol_",
          "type": "string"
        },
        {
          "internalType": "uint8",
          "name": "decimals_",
          "type": "uint8"
        },
        {
          "internalType": "uint256",
          "name": "totalSupply_",
          "type": "uint256"
        }
      ],
      "name": "init",
      "outputs": [],
      "stateMutability": "nonpayable",
      "type": "function"
    },
    {
      "inputs": [],
      "name": "name",
      "outputs": [
        {
          "internalType": "string",
          "name": "",
          "type": "string"
        }
      ],
      "stateMutability": "view",
      "type": "function"
    },
    {
      "inputs": [],
      "name": "owner",
      "outputs": [
        {
          "internalType": "address",
          "name": "",
          "type": "address"
        }
      ],
      "stateMutability": "view",
      "type": "function"
    },
    {
      "inputs": [],
      "name": "pause",
      "outputs": [],
      "stateMutability": "nonpayable",
      "type": "function"
    },
    {
      "inputs": [],
      "name": "paused",
      "outputs": [
        {
          "internalType": "bool",
          "name": "",
          "type": "bool"
        }
      ],
      "stateMutability": "view",
      "type": "function"
    },
    {
      "inputs": [],
      "name": "renounceOwnership",
      "outputs": [],
      "stateMutability": "nonpayable",
      "type": "function"
    },
    {
      "inputs": [],
      "name": "symbol",
      "outputs": [
        {
          "internalType": "string",
          "name": "",
          "type": "string"
        }
      ],
      "stateMutability": "view",
      "type": "function"
    },
    {
      "inputs": [],
      "name": "totalSupply",
      "outputs": [
        {
          "internalType": "uint256",
          "name": "",
          "type": "uint256"
        }
      ],
      "stateMutability": "view",
      "type": "function"
    },
    {
      "inputs": [
        {
          "internalType": "address",
          "name": "to",
          "type": "address"
        },
        {
          "internalType": "uint256",
          "name": "amount",
          "type": "uint256"
        }
      ],
      "name": "transfer",
      "outputs": [
        {
          "internalType": "bool",
          "name": "",
          "type": "bool"
        }
      ],
      "stateMutability": "nonpayable",
      "type": "function"
    },
    {
      "inputs": [
        {
          "internalType": "address",
          "name": "from",
          "type": "address"
        },
        {
          "internalType": "address",
          "name": "to",
          "type": "address"
        },
        {
          "internalType": "uint256",
          "name": "amount",
          "type": "uint256"
        }
      ],
      "name": "transferFrom",
      "outputs": [
        {
          "internalType": "bool",
          "name": "",
          "type": "bool"
        }
      ],
      "stateMutability": "nonpayable",
      "type": "function"
    },
    {
      "inputs": [
        {
          "internalType": "address",
          "name": "newOwner",
          "type": "address"
        }
      ],
      "name": "transferOwnership",
      "outputs": [],
      "stateMutability": "nonpayable",
      "type": "function"
    },
    {
      "inputs": [],
      "name": "unpause",
      "outputs": [],
      "stateMutability": "nonpayable",
      "type": "function"
    }
  ],
  "bytecode": "0x60806040526000600560016101000a81548160ff02191690831515021790555034801561002b57600080fd5b506001600560016101000a81548160ff0219169083151502179055506000600560166101000a81548160ff021916908315150217905550611da6806100716000396000f3fe608060405234801561001057600080fd5b50600436106101215760003560e01c806370a08231116100ad5780639cc850e8116100715780639cc850e8146102d4578063a457c2d7146102f0578063a9059cbb14610320578063dd62ed3e14610350578063f2fde38b1461038057610121565b806370a0823114610254578063715018a6146102845780638456cb591461028e5780638da5cb5b1461029857806395d89b41146102b657610121565b806323b872dd116100f457806323b872dd146101ae578063313ce567146101de57806339509351146101fc5780633f4ba83a1461022c5780635c975abb1461023657610121565b806306fdde0314610126578063095ea7b31461014457806318160ddd1461017457806319ab453c14610192575b600080fd5b61012e61039c565b60405161013b91906111d1565b60405180910390f35b61015e6004803603810190610159919061129b565b61042e565b60405161016b91906112f6565b60405180910390f35b61017c610451565b6040516101899190611320565b60405180910390f35b6101ac60048036038101906101a7919061133b565b61045b565b005b6101c860048036038101906101c39190611368565b610467565b6040516101d591906112f6565b60405180910390f35b6101e6610496565b6040516101f391906113d7565b60405180910390f35b6102166004803603810190610211919061129b565b61049f565b60405161022391906112f6565b60405180910390f35b6102346104d6565b005b61023e6104e8565b60405161024b91906112f6565b60405180910390f35b61026e6004803603810190610269919061133b565b6104ff565b60405161027b9190611320565b60405180910390f35b61028c610547565b005b61029661055b565b005b6102a061056d565b6040516102ad9190611401565b60405180910390f35b6102be610597565b6040516102cb91906111d1565b60405180910390f35b6102ee60048036038101906102e9919061157d565b610629565b005b61030a6004803603810190610305919061129b565b610646565b60405161031791906112f6565b60405180910390f35b61033a6004803603810190610335919061129b565b6106bd565b60405161034791906112f6565b60405180910390f35b61036a60048036038101906103659190611630565b6106e0565b6040516103779190611320565b60405180910390f35b61039a6004803603810190610395919061133b565b610767565b005b6060600380546103ab9061169f565b80601f01602080910402602001604051908101604052809291908181526020018280546103d79061169f565b80156104245780601f106103f957610100808354040283529160200191610424565b820191906000526020600020905b81548152906001019060200180831161040757829003601f168201915b5050505050905090565b6000806104396107eb565b90506104468185856107f3565b600191505092915050565b6000600254905090565b610464816109be565b50565b6000806104726107eb565b905061047f858285610a84565b61048a858585610b10565b60019150509392505050565b60006012905090565b6000806104aa6107eb565b90506104cb8185856104bc85896106e0565b6104c69190611700565b6107f3565b600191505092915050565b6104de610d91565b6104e6610e0f565b565b6000600560169054906101000a900460ff16905090565b60008060008373ffffffffffffffffffffffffffffffffffffffff1673ffffffffffffffffffffffffffffffffffffffff168152602001908152602001600020549050919050565b61054f610d91565b61055960006109be565b565b610563610d91565b61056b610e72565b565b6000600560029054906101000a900473ffffffffffffffffffffffffffffffffffffffff16905090565b6060600480546105a69061169f565b80601f01602080910402602001604051908101604052809291908181526020018280546105d29061169f565b801561061f5780601f106105f45761010080835404028352916020019161061f565b820191906000526020600020905b81548152906001019060200180831161060257829003601f168201915b5050505050905090565b6106368585858585610ed5565b61063f8561045b565b5050505050565b6000806106516107eb565b9050600061065f82866106e0565b9050838110156106a4576040517f08c379a000000000000000000000000000000000000000000000000000000000815260040161069b906117c8565b60405180910390fd5b6106b182868684036107f3565b60019250505092915050565b6000806106c86107eb565b90506106d5818585610b10565b600191505092915050565b6000600160008473ffffffffffffffffffffffffffffffffffffffff1673ffffffffffffffffffffffffffffffffffffffff16815260200190815260200160002060008373ffffffffffffffffffffffffffffffffffffffff1673ffffffffffffffffffffffffffffffffffffffff16815260200190815260200160002054905092915050565b61076f610d91565b600073ffffffffffffffffffffffffffffffffffffffff168173ffffffffffffffffffffffffffffffffffffffff1614156107df576040517f08c379a00000000000000000000000000000000000000000000000000000000081526004016107d69061185a565b60405180910390fd5b6107e8816109be565b50565b600033905090565b600073ffffffffffffffffffffffffffffffffffffffff168373ffffffffffffffffffffffffffffffffffffffff161415610863576040517f08c379a000000000000000000000000000000000000000000000000000000000815260040161085a906118ec565b60405180910390fd5b600073ffffffffffffffffffffffffffffffffffffffff168273ffffffffffffffffffffffffffffffffffffffff1614156108d3576040517f08c379a00000000000000000000000000000000000000000000000000000000081526004016108ca9061197e565b60405180910390fd5b80600160008573ffffffffffffffffffffffffffffffffffffffff1673ffffffffffffffffffffffffffffffffffffffff16815260200190815260200160002060008473ffffffffffffffffffffffffffffffffffffffff1673ffffffffffffffffffffffffffffffffffffffff168152602001908152602001600020819055508173ffffffffffffffffffffffffffffffffffffffff168373ffffffffffffffffffffffffffffffffffffffff167f8c5be1e5ebec7d5bd14f71427d1e84f3dd0314c0f7b2291e5b200ac8c7c3b925836040516109b19190611320565b60405180910390a3505050565b6000600560029054906101000a900473ffffffffffffffffffffffffffffffffffffffff16905081600560026101000a81548173ffffffffffffffffffffffffffffffffffffffff021916908373ffffffffffffffffffffffffffffffffffffffff1602179055508173ffffffffffffffffffffffffffffffffffffffff168173ffffffffffffffffffffffffffffffffffffffff167f8be0079c531659141344cd1fd0a4f28419497f9722a3daafe3b4186f6b6457e060405160405180910390a35050565b6000610a9084846106e0565b90507fffffffffffffffffffffffffffffffffffffffffffffffffffffffffffffffff8114610b0a5781811015610afc576040517f08c379a0000000000000000000000000000000000000000000000000000000008152600401610af3906119ea565b60405180910390fd5b610b0984848484036107f3565b5b50505050565b600073ffffffffffffffffffffffffffffffffffffffff168373ffffffffffffffffffffffffffffffffffffffff161415610b80576040517f08c379a0000000000000000000000000000000000000000000000000000000008152600401610b7790611a7c565b60405180910390fd5b600073ffffffffffffffffffffffffffffffffffffffff168273ffffffffffffffffffffffffffffffffffffffff161415610bf0576040517f08c379a0000000000000000000000000000000000000000000000000000000008152600401610be790611b0e565b60405180910390fd5b610bfb838383610fe0565b60008060008573ffffffffffffffffffffffffffffffffffffffff1673ffffffffffffffffffffffffffffffffffffffff16815260200190815260200160002054905081811015610c81576040517f08c379a0000000000000000000000000000000000000000000000000000000008152600401610c7890611ba0565b60405180910390fd5b8181036000808673ffffffffffffffffffffffffffffffffffffffff1673ffffffffffffffffffffffffffffffffffffffff16815260200190815260200160002081905550816000808573ffffffffffffffffffffffffffffffffffffffff1673ffffffffffffffffffffffffffffffffffffffff1681526020019081526020016000206000828254610d149190611700565b925050819055508273ffffffffffffffffffffffffffffffffffffffff168473ffffffffffffffffffffffffffffffffffffffff167fddf252ad1be2c89b69c2b068fc378daa952ba7f163c4a11628f55a4df523b3ef84604051610d789190611320565b60405180910390a3610d8b848484610ff8565b50505050565b610d996107eb565b73ffffffffffffffffffffffffffffffffffffffff16610db761056d565b73ffffffffffffffffffffffffffffffffffffffff1614610e0d576040517f08c379a0000000000000000000000000000000000000000000000000000000008152600401610e0490611c0c565b60405180910390fd5b565b610e17610ffd565b6000600560166101000a81548160ff0219169083151502179055507f5db9ee0a495bf2e6ff9c91a7834c1ba4fdd244a5e8aa4e537bd38aeae4b073aa610e5b6107eb565b604051610e689190611401565b60405180910390a1565b610e7a611046565b6001600560166101000a81548160ff0219169083151502179055507f62e78cea01bee320cd4e420270b5ea74000d11b0c9f74754ebdbfc544b05a258610ebe6107eb565b604051610ecb9190611401565b60405180910390a1565b60001515600560019054906101000a900460ff16151514610f2b576040517f08c379a0000000000000000000000000000000000000000000000000000000008152600401610f2290611c78565b60405180910390fd5b8360039080519060200190610f41929190611095565b508260049080519060200190610f58929190611095565b5081600560006101000a81548160ff021916908360ff160217905550806000808773ffffffffffffffffffffffffffffffffffffffff1673ffffffffffffffffffffffffffffffffffffffff16815260200190815260200160002081905550806002819055506001600560016101000a81548160ff0219169083151502179055505050505050565b610fe8611046565b610ff3838383611090565b505050565b505050565b6110056104e8565b611044576040517f08c379a000000000000000000000000000000000000000000000000000000000815260040161103b90611ce4565b60405180910390fd5b565b61104e6104e8565b1561108e576040517f08c379a000000000000000000000000000000000000000000000000000000000815260040161108590611d50565b60405180910390fd5b565b505050565b8280546110a19061169f565b90600052602060002090601f0160209004810192826110c3576000855561110a565b82601f106110dc57805160ff191683800117855561110a565b8280016001018555821561110a579182015b828111156111095782518255916020019190600101906110ee565b5b509050611117919061111b565b5090565b5b8082111561113457600081600090555060010161111c565b5090565b600081519050919050565b600082825260208201905092915050565b60005b83811015611172578082015181840152602081019050611157565b83811115611181576000848401525b50505050565b6000601f19601f8301169050919050565b60006111a382611138565b6111ad8185611143565b93506111bd818560208601611154565b6111c681611187565b840191505092915050565b600060208201905081810360008301526111eb8184611198565b905092915050565b6000604051905090565b600080fd5b600080fd5b600073ffffffffffffffffffffffffffffffffffffffff82169050919050565b600061123282611207565b9050919050565b61124281611227565b811461124d57600080fd5b50565b60008135905061125f81611239565b92915050565b6000819050919050565b61127881611265565b811461128357600080fd5b50565b6000813590506112958161126f565b92915050565b600080604083850312156112b2576112b16111fd565b5b60006112c085828601611250565b92505060206112d185828601611286565b9150509250929050565b60008115159050919050565b6112f0816112db565b82525050565b600060208201905061130b60008301846112e7565b92915050565b61131a81611265565b82525050565b60006020820190506113356000830184611311565b92915050565b600060208284031215611351576113506111fd565b5b600061135f84828501611250565b91505092915050565b600080600060608486031215611381576113806111fd565b5b600061138f86828701611250565b93505060206113a086828701611250565b92505060406113b186828701611286565b9150509250925092565b600060ff82169050919050565b6113d1816113bb565b82525050565b60006020820190506113ec60008301846113c8565b92915050565b6113fb81611227565b82525050565b600060208201905061141660008301846113f2565b92915050565b600080fd5b600080fd5b7f4e487b7100000000000000000000000000000000000000000000000000000000600052604160045260246000fd5b61145e82611187565b810181811067ffffffffffffffff8211171561147d5761147c611426565b5b80604052505050565b60006114906111f3565b905061149c8282611455565b919050565b600067ffffffffffffffff8211156114bc576114bb611426565b5b6114c582611187565b9050602081019050919050565b82818337600083830152505050565b60006114f46114ef846114a1565b611486565b9050828152602081018484840111156115105761150f611421565b5b61151b8482856114d2565b509392505050565b600082601f8301126115385761153761141c565b5b81356115488482602086016114e1565b91505092915050565b61155a816113bb565b811461156557600080fd5b50565b60008135905061157781611551565b92915050565b600080600080600060a08688031215611599576115986111fd565b5b60006115a788828901611250565b955050602086013567ffffffffffffffff8111156115c8576115c7611202565b5b6115d488828901611523565b945050604086013567ffffffffffffffff8111156115f5576115f4611202565b5b61160188828901611523565b935050606061161288828901611568565b925050608061162388828901611286565b9150509295509295909350565b60008060408385031215611647576116466111fd565b5b600061165585828601611250565b925050602061166685828601611250565b9150509250929050565b7f4e487b7100000000000000000000000000000000000000000000000000000000600052602260045260246000fd5b600060028204905060018216806116b757607f821691505b602082108114156116cb576116ca611670565b5b50919050565b7f4e487b7100000000000000000000000000000000000000000000000000000000600052601160045260246000fd5b600061170b82611265565b915061171683611265565b9250827fffffffffffffffffffffffffffffffffffffffffffffffffffffffffffffffff0382111561174b5761174a6116d1565b5b828201905092915050565b7f45524332303a2064656372656173656420616c6c6f77616e63652062656c6f7760008201527f207a65726f000000000000000000000000000000000000000000000000000000602082015250565b60006117b2602583611143565b91506117bd82611756565b604082019050919050565b600060208201905081810360008301526117e1816117a5565b9050919050565b7f4f776e61626c653a206e6577206f776e657220697320746865207a65726f206160008201527f6464726573730000000000000000000000000000000000000000000000000000602082015250565b6000611844602683611143565b915061184f826117e8565b604082019050919050565b6000602082019050818103600083015261187381611837565b9050919050565b7f45524332303a20617070726f76652066726f6d20746865207a65726f2061646460008201527f7265737300000000000000000000000000000000000000000000000000000000602082015250565b60006118d6602483611143565b91506118e18261187a565b604082019050919050565b60006020820190508181036000830152611905816118c9565b9050919050565b7f45524332303a20617070726f766520746f20746865207a65726f20616464726560008201527f7373000000000000000000000000000000000000000000000000000000000000602082015250565b6000611968602283611143565b91506119738261190c565b604082019050919050565b600060208201905081810360008301526119978161195b565b9050919050565b7f45524332303a20696e73756666696369656e7420616c6c6f77616e6365000000600082015250565b60006119d4601d83611143565b91506119df8261199e565b602082019050919050565b60006020820190508181036000830152611a03816119c7565b9050919050565b7f45524332303a207472616e736665722066726f6d20746865207a65726f20616460008201527f6472657373000000000000000000000000000000000000000000000000000000602082015250565b6000611a66602583611143565b9150611a7182611a0a565b604082019050919050565b60006020820190508181036000830152611a9581611a59565b9050919050565b7f45524332303a207472616e7366657220746f20746865207a65726f206164647260008201527f6573730000000000000000000000000000000000000000000000000000000000602082015250565b6000611af8602383611143565b9150611b0382611a9c565b604082019050919050565b60006020820190508181036000830152611b2781611aeb565b9050919050565b7f45524332303a207472616e7366657220616d6f756e742065786365656473206260008201527f616c616e63650000000000000000000000000000000000000000000000000000602082015250565b6000611b8a602683611143565b9150611b9582611b2e565b604082019050919050565b60006020820190508181036000830152611bb981611b7d565b9050919050565b7f4f776e61626c653a2063616c6c6572206973206e6f7420746865206f776e6572600082015250565b6000611bf6602083611143565b9150611c0182611bc0565b602082019050919050565b60006020820190508181036000830152611c2581611be9565b9050919050565b7f436f6e747261637420616c726561647920696e697469616c697a656400000000600082015250565b6000611c62601c83611143565b9150611c6d82611c2c565b602082019050919050565b60006020820190508181036000830152611c9181611c55565b9050919050565b7f5061757361626c653a206e6f7420706175736564000000000000000000000000600082015250565b6000611cce601483611143565b9150611cd982611c98565b602082019050919050565b60006020820190508181036000830152611cfd81611cc1565b9050919050565b7f5061757361626c653a2070617573656400000000000000000000000000000000600082015250565b6000611d3a601083611143565b9150611d4582611d04565b602082019050919050565b60006020820190508181036000830152611d6981611d2d565b905091905056fea264697066735822122083d269a406e97c3eca2cda075b75347f79b10938d7c4cfae0690f9421f7c79ec64736f6c63430008090033",
  "linkReferences": {},
  "deployedLinkReferences": {}
}