{
  "_format": "hh-sol-artifact-1",
  "contractName": "ERC20MintBurnPause",
  "sourceName": "contracts/ERC20/ERC20MintBurnPause.sol",
  "abi": [
    {
      "anonymous": false,
      "inputs": [
        {
          "indexed": true,
          "internalType": "address",
          "name": "owner",
          "type": "address"
        },
        {
          "indexed": true,
          "internalType": "address",
          "name": "spender",
          "type": "address"
        },
        {
          "indexed": false,
          "internalType": "uint256",
          "name": "value",
          "type": "uint256"
        }
      ],
      "name": "Approval",
      "type": "event"
    },
    {
      "anonymous": false,
      "inputs": [
        {
          "indexed": true,
          "internalType": "address",
          "name": "previousOwner",
          "type": "address"
        },
        {
          "indexed": true,
          "internalType": "address",
          "name": "newOwner",
          "type": "address"
        }
      ],
      "name": "OwnershipTransferred",
      "type": "event"
    },
    {
      "anonymous": false,
      "inputs": [
        {
          "indexed": false,
          "internalType": "address",
          "name": "account",
          "type": "address"
        }
      ],
      "name": "Paused",
      "type": "event"
    },
    {
      "anonymous": false,
      "inputs": [
        {
          "indexed": true,
          "internalType": "address",
          "name": "from",
          "type": "address"
        },
        {
          "indexed": true,
          "internalType": "address",
          "name": "to",
          "type": "address"
        },
        {
          "indexed": false,
          "internalType": "uint256",
          "name": "value",
          "type": "uint256"
        }
      ],
      "name": "Transfer",
      "type": "event"
    },
    {
      "anonymous": false,
      "inputs": [
        {
          "indexed": false,
          "internalType": "address",
          "name": "account",
          "type": "address"
        }
      ],
      "name": "Unpaused",
      "type": "event"
    },
    {
      "inputs": [
        {
          "internalType": "address",
          "name": "owner",
          "type": "address"
        },
        {
          "internalType": "address",
          "name": "spender",
          "type": "address"
        }
      ],
      "name": "allowance",
      "outputs": [
        {
          "internalType": "uint256",
          "name": "",
          "type": "uint256"
        }
      ],
      "stateMutability": "view",
      "type": "function"
    },
    {
      "inputs": [
        {
          "internalType": "address",
          "name": "spender",
          "type": "address"
        },
        {
          "internalType": "uint256",
          "name": "amount",
          "type": "uint256"
        }
      ],
      "name": "approve",
      "outputs": [
        {
          "internalType": "bool",
          "name": "",
          "type": "bool"
        }
      ],
      "stateMutability": "nonpayable",
      "type": "function"
    },
    {
      "inputs": [
        {
          "internalType": "address",
          "name": "account",
          "type": "address"
        }
      ],
      "name": "balanceOf",
      "outputs": [
        {
          "internalType": "uint256",
          "name": "",
          "type": "uint256"
        }
      ],
      "stateMutability": "view",
      "type": "function"
    },
    {
      "inputs": [
        {
          "internalType": "uint256",
          "name": "amount",
          "type": "uint256"
        }
      ],
      "name": "burn",
      "outputs": [],
      "stateMutability": "nonpayable",
      "type": "function"
    },
    {
      "inputs": [
        {
          "internalType": "address",
          "name": "account",
          "type": "address"
        },
        {
          "internalType": "uint256",
          "name": "amount",
          "type": "uint256"
        }
      ],
      "name": "burnFrom",
      "outputs": [],
      "stateMutability": "nonpayable",
      "type": "function"
    },
    {
      "inputs": [],
      "name": "decimals",
      "outputs": [
        {
          "internalType": "uint8",
          "name": "",
          "type": "uint8"
        }
      ],
      "stateMutability": "view",
      "type": "function"
    },
    {
      "inputs": [
        {
          "internalType": "address",
          "name": "spender",
          "type": "address"
        },
        {
          "internalType": "uint256",
          "name": "subtractedValue",
          "type": "uint256"
        }
      ],
      "name": "decreaseAllowance",
      "outputs": [
        {
          "internalType": "bool",
          "name": "",
          "type": "bool"
        }
      ],
      "stateMutability": "nonpayable",
      "type": "function"
    },
    {
      "inputs": [
        {
          "internalType": "address",
          "name": "spender",
          "type": "address"
        },
        {
          "internalType": "uint256",
          "name": "addedValue",
          "type": "uint256"
        }
      ],
      "name": "increaseAllowance",
      "outputs": [
        {
          "internalType": "bool",
          "name": "",
          "type": "bool"
        }
      ],
      "stateMutability": "nonpayable",
      "type": "function"
    },
    {
      "inputs": [
        {
          "internalType": "address",
          "name": "owner_",
          "type": "address"
        }
      ],
      "name": "init",
      "outputs": [],
      "stateMutability": "nonpayable",
      "type": "function"
    },
    {
      "inputs": [
        {
          "internalType": "address",
          "name": "owner_",
          "type": "address"
        },
        {
          "internalType": "string",
          "name": "name_",
          "type": "string"
        },
        {
          "internalType": "string",
          "name": "symbol_",
          "type": "string"
        },
        {
          "internalType": "uint8",
          "name": "decimals_",
          "type": "uint8"
        },
        {
          "internalType": "uint256",
          "name": "totalSupply_",
          "type": "uint256"
        }
      ],
      "name": "init",
      "outputs": [],
      "stateMutability": "nonpayable",
      "type": "function"
    },
    {
      "inputs": [
        {
          "internalType": "address",
          "name": "to",
          "type": "address"
        },
        {
          "internalType": "uint256",
          "name": "amount",
          "type": "uint256"
        }
      ],
      "name": "mint",
      "outputs": [],
      "stateMutability": "nonpayable",
      "type": "function"
    },
    {
      "inputs": [],
      "name": "name",
      "outputs": [
        {
          "internalType": "string",
          "name": "",
          "type": "string"
        }
      ],
      "stateMutability": "view",
      "type": "function"
    },
    {
      "inputs": [],
      "name": "owner",
      "outputs": [
        {
          "internalType": "address",
          "name": "",
          "type": "address"
        }
      ],
      "stateMutability": "view",
      "type": "function"
    },
    {
      "inputs": [],
      "name": "pause",
      "outputs": [],
      "stateMutability": "nonpayable",
      "type": "function"
    },
    {
      "inputs": [],
      "name": "paused",
      "outputs": [
        {
          "internalType": "bool",
          "name": "",
          "type": "bool"
        }
      ],
      "stateMutability": "view",
      "type": "function"
    },
    {
      "inputs": [],
      "name": "renounceOwnership",
      "outputs": [],
      "stateMutability": "nonpayable",
      "type": "function"
    },
    {
      "inputs": [],
      "name": "symbol",
      "outputs": [
        {
          "internalType": "string",
          "name": "",
          "type": "string"
        }
      ],
      "stateMutability": "view",
      "type": "function"
    },
    {
      "inputs": [],
      "name": "totalSupply",
      "outputs": [
        {
          "internalType": "uint256",
          "name": "",
          "type": "uint256"
        }
      ],
      "stateMutability": "view",
      "type": "function"
    },
    {
      "inputs": [
        {
          "internalType": "address",
          "name": "to",
          "type": "address"
        },
        {
          "internalType": "uint256",
          "name": "amount",
          "type": "uint256"
        }
      ],
      "name": "transfer",
      "outputs": [
        {
          "internalType": "bool",
          "name": "",
          "type": "bool"
        }
      ],
      "stateMutability": "nonpayable",
      "type": "function"
    },
    {
      "inputs": [
        {
          "internalType": "address",
          "name": "from",
          "type": "address"
        },
        {
          "internalType": "address",
          "name": "to",
          "type": "address"
        },
        {
          "internalType": "uint256",
          "name": "amount",
          "type": "uint256"
        }
      ],
      "name": "transferFrom",
      "outputs": [
        {
          "internalType": "bool",
          "name": "",
          "type": "bool"
        }
      ],
      "stateMutability": "nonpayable",
      "type": "function"
    },
    {
      "inputs": [
        {
          "internalType": "address",
          "name": "newOwner",
          "type": "address"
        }
      ],
      "name": "transferOwnership",
      "outputs": [],
      "stateMutability": "nonpayable",
      "type": "function"
    },
    {
      "inputs": [],
      "name": "unpause",
      "outputs": [],
      "stateMutability": "nonpayable",
      "type": "function"
    }
  ],
  "bytecode": "0x60806040526000600560016101000a81548160ff02191690831515021790555034801561002b57600080fd5b506001600560016101000a81548160ff0219169083151502179055506000600560166101000a81548160ff02191690831515021790555061238d806100716000396000f3fe608060405234801561001057600080fd5b50600436106101425760003560e01c806370a08231116100b857806395d89b411161007c57806395d89b411461032b5780639cc850e814610349578063a457c2d714610365578063a9059cbb14610395578063dd62ed3e146103c5578063f2fde38b146103f557610142565b806370a08231146102ad578063715018a6146102dd57806379cc6790146102e75780638456cb59146103035780638da5cb5b1461030d57610142565b8063313ce5671161010a578063313ce567146101ff578063395093511461021d5780633f4ba83a1461024d57806340c10f191461025757806342966c68146102735780635c975abb1461028f57610142565b806306fdde0314610147578063095ea7b31461016557806318160ddd1461019557806319ab453c146101b357806323b872dd146101cf575b600080fd5b61014f610411565b60405161015c91906115c7565b60405180910390f35b61017f600480360381019061017a9190611691565b6104a3565b60405161018c91906116ec565b60405180910390f35b61019d6104c6565b6040516101aa9190611716565b60405180910390f35b6101cd60048036038101906101c89190611731565b6104d0565b005b6101e960048036038101906101e4919061175e565b6104dc565b6040516101f691906116ec565b60405180910390f35b61020761050b565b60405161021491906117cd565b60405180910390f35b61023760048036038101906102329190611691565b610514565b60405161024491906116ec565b60405180910390f35b61025561054b565b005b610271600480360381019061026c9190611691565b61055d565b005b61028d600480360381019061028891906117e8565b610573565b005b610297610587565b6040516102a491906116ec565b60405180910390f35b6102c760048036038101906102c29190611731565b61059e565b6040516102d49190611716565b60405180910390f35b6102e56105e6565b005b61030160048036038101906102fc9190611691565b6105fa565b005b61030b61061a565b005b61031561062c565b6040516103229190611824565b60405180910390f35b610333610656565b60405161034091906115c7565b60405180910390f35b610363600480360381019061035e91906119a0565b6106e8565b005b61037f600480360381019061037a9190611691565b610705565b60405161038c91906116ec565b60405180910390f35b6103af60048036038101906103aa9190611691565b61077c565b6040516103bc91906116ec565b60405180910390f35b6103df60048036038101906103da9190611a53565b61079f565b6040516103ec9190611716565b60405180910390f35b61040f600480360381019061040a9190611731565b610826565b005b60606003805461042090611ac2565b80601f016020809104026020016040519081016040528092919081815260200182805461044c90611ac2565b80156104995780601f1061046e57610100808354040283529160200191610499565b820191906000526020600020905b81548152906001019060200180831161047c57829003601f168201915b5050505050905090565b6000806104ae6108aa565b90506104bb8185856108b2565b600191505092915050565b6000600254905090565b6104d981610a7d565b50565b6000806104e76108aa565b90506104f4858285610b43565b6104ff858585610bcf565b60019150509392505050565b60006012905090565b60008061051f6108aa565b9050610540818585610531858961079f565b61053b9190611b23565b6108b2565b600191505092915050565b610553610e50565b61055b610ece565b565b610565610e50565b61056f8282610f31565b5050565b61058461057e6108aa565b82611091565b50565b6000600560169054906101000a900460ff16905090565b60008060008373ffffffffffffffffffffffffffffffffffffffff1673ffffffffffffffffffffffffffffffffffffffff168152602001908152602001600020549050919050565b6105ee610e50565b6105f86000610a7d565b565b61060c826106066108aa565b83610b43565b6106168282611091565b5050565b610622610e50565b61062a611268565b565b6000600560029054906101000a900473ffffffffffffffffffffffffffffffffffffffff16905090565b60606004805461066590611ac2565b80601f016020809104026020016040519081016040528092919081815260200182805461069190611ac2565b80156106de5780601f106106b3576101008083540402835291602001916106de565b820191906000526020600020905b8154815290600101906020018083116106c157829003601f168201915b5050505050905090565b6106f585858585856112cb565b6106fe856104d0565b5050505050565b6000806107106108aa565b9050600061071e828661079f565b905083811015610763576040517f08c379a000000000000000000000000000000000000000000000000000000000815260040161075a90611beb565b60405180910390fd5b61077082868684036108b2565b60019250505092915050565b6000806107876108aa565b9050610794818585610bcf565b600191505092915050565b6000600160008473ffffffffffffffffffffffffffffffffffffffff1673ffffffffffffffffffffffffffffffffffffffff16815260200190815260200160002060008373ffffffffffffffffffffffffffffffffffffffff1673ffffffffffffffffffffffffffffffffffffffff16815260200190815260200160002054905092915050565b61082e610e50565b600073ffffffffffffffffffffffffffffffffffffffff168173ffffffffffffffffffffffffffffffffffffffff16141561089e576040517f08c379a000000000000000000000000000000000000000000000000000000000815260040161089590611c7d565b60405180910390fd5b6108a781610a7d565b50565b600033905090565b600073ffffffffffffffffffffffffffffffffffffffff168373ffffffffffffffffffffffffffffffffffffffff161415610922576040517f08c379a000000000000000000000000000000000000000000000000000000000815260040161091990611d0f565b60405180910390fd5b600073ffffffffffffffffffffffffffffffffffffffff168273ffffffffffffffffffffffffffffffffffffffff161415610992576040517f08c379a000000000000000000000000000000000000000000000000000000000815260040161098990611da1565b60405180910390fd5b80600160008573ffffffffffffffffffffffffffffffffffffffff1673ffffffffffffffffffffffffffffffffffffffff16815260200190815260200160002060008473ffffffffffffffffffffffffffffffffffffffff1673ffffffffffffffffffffffffffffffffffffffff168152602001908152602001600020819055508173ffffffffffffffffffffffffffffffffffffffff168373ffffffffffffffffffffffffffffffffffffffff167f8c5be1e5ebec7d5bd14f71427d1e84f3dd0314c0f7b2291e5b200ac8c7c3b92583604051610a709190611716565b60405180910390a3505050565b6000600560029054906101000a900473ffffffffffffffffffffffffffffffffffffffff16905081600560026101000a81548173ffffffffffffffffffffffffffffffffffffffff021916908373ffffffffffffffffffffffffffffffffffffffff1602179055508173ffffffffffffffffffffffffffffffffffffffff168173ffffffffffffffffffffffffffffffffffffffff167f8be0079c531659141344cd1fd0a4f28419497f9722a3daafe3b4186f6b6457e060405160405180910390a35050565b6000610b4f848461079f565b90507fffffffffffffffffffffffffffffffffffffffffffffffffffffffffffffffff8114610bc95781811015610bbb576040517f08c379a0000000000000000000000000000000000000000000000000000000008152600401610bb290611e0d565b60405180910390fd5b610bc884848484036108b2565b5b50505050565b600073ffffffffffffffffffffffffffffffffffffffff168373ffffffffffffffffffffffffffffffffffffffff161415610c3f576040517f08c379a0000000000000000000000000000000000000000000000000000000008152600401610c3690611e9f565b60405180910390fd5b600073ffffffffffffffffffffffffffffffffffffffff168273ffffffffffffffffffffffffffffffffffffffff161415610caf576040517f08c379a0000000000000000000000000000000000000000000000000000000008152600401610ca690611f31565b60405180910390fd5b610cba8383836113d6565b60008060008573ffffffffffffffffffffffffffffffffffffffff1673ffffffffffffffffffffffffffffffffffffffff16815260200190815260200160002054905081811015610d40576040517f08c379a0000000000000000000000000000000000000000000000000000000008152600401610d3790611fc3565b60405180910390fd5b8181036000808673ffffffffffffffffffffffffffffffffffffffff1673ffffffffffffffffffffffffffffffffffffffff16815260200190815260200160002081905550816000808573ffffffffffffffffffffffffffffffffffffffff1673ffffffffffffffffffffffffffffffffffffffff1681526020019081526020016000206000828254610dd39190611b23565b925050819055508273ffffffffffffffffffffffffffffffffffffffff168473ffffffffffffffffffffffffffffffffffffffff167fddf252ad1be2c89b69c2b068fc378daa952ba7f163c4a11628f55a4df523b3ef84604051610e379190611716565b60405180910390a3610e4a8484846113ee565b50505050565b610e586108aa565b73ffffffffffffffffffffffffffffffffffffffff16610e7661062c565b73ffffffffffffffffffffffffffffffffffffffff1614610ecc576040517f08c379a0000000000000000000000000000000000000000000000000000000008152600401610ec39061202f565b60405180910390fd5b565b610ed66113f3565b6000600560166101000a81548160ff0219169083151502179055507f5db9ee0a495bf2e6ff9c91a7834c1ba4fdd244a5e8aa4e537bd38aeae4b073aa610f1a6108aa565b604051610f279190611824565b60405180910390a1565b600073ffffffffffffffffffffffffffffffffffffffff168273ffffffffffffffffffffffffffffffffffffffff161415610fa1576040517f08c379a0000000000000000000000000000000000000000000000000000000008152600401610f989061209b565b60405180910390fd5b610fad600083836113d6565b8060026000828254610fbf9190611b23565b92505081905550806000808473ffffffffffffffffffffffffffffffffffffffff1673ffffffffffffffffffffffffffffffffffffffff16815260200190815260200160002060008282546110149190611b23565b925050819055508173ffffffffffffffffffffffffffffffffffffffff16600073ffffffffffffffffffffffffffffffffffffffff167fddf252ad1be2c89b69c2b068fc378daa952ba7f163c4a11628f55a4df523b3ef836040516110799190611716565b60405180910390a361108d600083836113ee565b5050565b600073ffffffffffffffffffffffffffffffffffffffff168273ffffffffffffffffffffffffffffffffffffffff161415611101576040517f08c379a00000000000000000000000000000000000000000000000000000000081526004016110f89061212d565b60405180910390fd5b61110d826000836113d6565b60008060008473ffffffffffffffffffffffffffffffffffffffff1673ffffffffffffffffffffffffffffffffffffffff16815260200190815260200160002054905081811015611193576040517f08c379a000000000000000000000000000000000000000000000000000000000815260040161118a906121bf565b60405180910390fd5b8181036000808573ffffffffffffffffffffffffffffffffffffffff1673ffffffffffffffffffffffffffffffffffffffff1681526020019081526020016000208190555081600260008282546111ea91906121df565b92505081905550600073ffffffffffffffffffffffffffffffffffffffff168373ffffffffffffffffffffffffffffffffffffffff167fddf252ad1be2c89b69c2b068fc378daa952ba7f163c4a11628f55a4df523b3ef8460405161124f9190611716565b60405180910390a3611263836000846113ee565b505050565b61127061143c565b6001600560166101000a81548160ff0219169083151502179055507f62e78cea01bee320cd4e420270b5ea74000d11b0c9f74754ebdbfc544b05a2586112b46108aa565b6040516112c19190611824565b60405180910390a1565b60001515600560019054906101000a900460ff16151514611321576040517f08c379a00000000000000000000000000000000000000000000000000000000081526004016113189061225f565b60405180910390fd5b836003908051906020019061133792919061148b565b50826004908051906020019061134e92919061148b565b5081600560006101000a81548160ff021916908360ff160217905550806000808773ffffffffffffffffffffffffffffffffffffffff1673ffffffffffffffffffffffffffffffffffffffff16815260200190815260200160002081905550806002819055506001600560016101000a81548160ff0219169083151502179055505050505050565b6113de61143c565b6113e9838383611486565b505050565b505050565b6113fb610587565b61143a576040517f08c379a0000000000000000000000000000000000000000000000000000000008152600401611431906122cb565b60405180910390fd5b565b611444610587565b15611484576040517f08c379a000000000000000000000000000000000000000000000000000000000815260040161147b90612337565b60405180910390fd5b565b505050565b82805461149790611ac2565b90600052602060002090601f0160209004810192826114b95760008555611500565b82601f106114d257805160ff1916838001178555611500565b82800160010185558215611500579182015b828111156114ff5782518255916020019190600101906114e4565b5b50905061150d9190611511565b5090565b5b8082111561152a576000816000905550600101611512565b5090565b600081519050919050565b600082825260208201905092915050565b60005b8381101561156857808201518184015260208101905061154d565b83811115611577576000848401525b50505050565b6000601f19601f8301169050919050565b60006115998261152e565b6115a38185611539565b93506115b381856020860161154a565b6115bc8161157d565b840191505092915050565b600060208201905081810360008301526115e1818461158e565b905092915050565b6000604051905090565b600080fd5b600080fd5b600073ffffffffffffffffffffffffffffffffffffffff82169050919050565b6000611628826115fd565b9050919050565b6116388161161d565b811461164357600080fd5b50565b6000813590506116558161162f565b92915050565b6000819050919050565b61166e8161165b565b811461167957600080fd5b50565b60008135905061168b81611665565b92915050565b600080604083850312156116a8576116a76115f3565b5b60006116b685828601611646565b92505060206116c78582860161167c565b9150509250929050565b60008115159050919050565b6116e6816116d1565b82525050565b600060208201905061170160008301846116dd565b92915050565b6117108161165b565b82525050565b600060208201905061172b6000830184611707565b92915050565b600060208284031215611747576117466115f3565b5b600061175584828501611646565b91505092915050565b600080600060608486031215611777576117766115f3565b5b600061178586828701611646565b935050602061179686828701611646565b92505060406117a78682870161167c565b9150509250925092565b600060ff82169050919050565b6117c7816117b1565b82525050565b60006020820190506117e260008301846117be565b92915050565b6000602082840312156117fe576117fd6115f3565b5b600061180c8482850161167c565b91505092915050565b61181e8161161d565b82525050565b60006020820190506118396000830184611815565b92915050565b600080fd5b600080fd5b7f4e487b7100000000000000000000000000000000000000000000000000000000600052604160045260246000fd5b6118818261157d565b810181811067ffffffffffffffff821117156118a05761189f611849565b5b80604052505050565b60006118b36115e9565b90506118bf8282611878565b919050565b600067ffffffffffffffff8211156118df576118de611849565b5b6118e88261157d565b9050602081019050919050565b82818337600083830152505050565b6000611917611912846118c4565b6118a9565b90508281526020810184848401111561193357611932611844565b5b61193e8482856118f5565b509392505050565b600082601f83011261195b5761195a61183f565b5b813561196b848260208601611904565b91505092915050565b61197d816117b1565b811461198857600080fd5b50565b60008135905061199a81611974565b92915050565b600080600080600060a086880312156119bc576119bb6115f3565b5b60006119ca88828901611646565b955050602086013567ffffffffffffffff8111156119eb576119ea6115f8565b5b6119f788828901611946565b945050604086013567ffffffffffffffff811115611a1857611a176115f8565b5b611a2488828901611946565b9350506060611a358882890161198b565b9250506080611a468882890161167c565b9150509295509295909350565b60008060408385031215611a6a57611a696115f3565b5b6000611a7885828601611646565b9250506020611a8985828601611646565b9150509250929050565b7f4e487b7100000000000000000000000000000000000000000000000000000000600052602260045260246000fd5b60006002820490506001821680611ada57607f821691505b60208210811415611aee57611aed611a93565b5b50919050565b7f4e487b7100000000000000000000000000000000000000000000000000000000600052601160045260246000fd5b6000611b2e8261165b565b9150611b398361165b565b9250827fffffffffffffffffffffffffffffffffffffffffffffffffffffffffffffffff03821115611b6e57611b6d611af4565b5b828201905092915050565b7f45524332303a2064656372656173656420616c6c6f77616e63652062656c6f7760008201527f207a65726f000000000000000000000000000000000000000000000000000000602082015250565b6000611bd5602583611539565b9150611be082611b79565b604082019050919050565b60006020820190508181036000830152611c0481611bc8565b9050919050565b7f4f776e61626c653a206e6577206f776e657220697320746865207a65726f206160008201527f6464726573730000000000000000000000000000000000000000000000000000602082015250565b6000611c67602683611539565b9150611c7282611c0b565b604082019050919050565b60006020820190508181036000830152611c9681611c5a565b9050919050565b7f45524332303a20617070726f76652066726f6d20746865207a65726f2061646460008201527f7265737300000000000000000000000000000000000000000000000000000000602082015250565b6000611cf9602483611539565b9150611d0482611c9d565b604082019050919050565b60006020820190508181036000830152611d2881611cec565b9050919050565b7f45524332303a20617070726f766520746f20746865207a65726f20616464726560008201527f7373000000000000000000000000000000000000000000000000000000000000602082015250565b6000611d8b602283611539565b9150611d9682611d2f565b604082019050919050565b60006020820190508181036000830152611dba81611d7e565b9050919050565b7f45524332303a20696e73756666696369656e7420616c6c6f77616e6365000000600082015250565b6000611df7601d83611539565b9150611e0282611dc1565b602082019050919050565b60006020820190508181036000830152611e2681611dea565b9050919050565b7f45524332303a207472616e736665722066726f6d20746865207a65726f20616460008201527f6472657373000000000000000000000000000000000000000000000000000000602082015250565b6000611e89602583611539565b9150611e9482611e2d565b604082019050919050565b60006020820190508181036000830152611eb881611e7c565b9050919050565b7f45524332303a207472616e7366657220746f20746865207a65726f206164647260008201527f6573730000000000000000000000000000000000000000000000000000000000602082015250565b6000611f1b602383611539565b9150611f2682611ebf565b604082019050919050565b60006020820190508181036000830152611f4a81611f0e565b9050919050565b7f45524332303a207472616e7366657220616d6f756e742065786365656473206260008201527f616c616e63650000000000000000000000000000000000000000000000000000602082015250565b6000611fad602683611539565b9150611fb882611f51565b604082019050919050565b60006020820190508181036000830152611fdc81611fa0565b9050919050565b7f4f776e61626c653a2063616c6c6572206973206e6f7420746865206f776e6572600082015250565b6000612019602083611539565b915061202482611fe3565b602082019050919050565b600060208201905081810360008301526120488161200c565b9050919050565b7f45524332303a206d696e7420746f20746865207a65726f206164647265737300600082015250565b6000612085601f83611539565b91506120908261204f565b602082019050919050565b600060208201905081810360008301526120b481612078565b9050919050565b7f45524332303a206275726e2066726f6d20746865207a65726f2061646472657360008201527f7300000000000000000000000000000000000000000000000000000000000000602082015250565b6000612117602183611539565b9150612122826120bb565b604082019050919050565b600060208201905081810360008301526121468161210a565b9050919050565b7f45524332303a206275726e20616d6f756e7420657863656564732062616c616e60008201527f6365000000000000000000000000000000000000000000000000000000000000602082015250565b60006121a9602283611539565b91506121b48261214d565b604082019050919050565b600060208201905081810360008301526121d88161219c565b9050919050565b60006121ea8261165b565b91506121f58361165b565b92508282101561220857612207611af4565b5b828203905092915050565b7f436f6e747261637420616c726561647920696e697469616c697a656400000000600082015250565b6000612249601c83611539565b915061225482612213565b602082019050919050565b600060208201905081810360008301526122788161223c565b9050919050565b7f5061757361626c653a206e6f7420706175736564000000000000000000000000600082015250565b60006122b5601483611539565b91506122c08261227f565b602082019050919050565b600060208201905081810360008301526122e4816122a8565b9050919050565b7f5061757361626c653a2070617573656400000000000000000000000000000000600082015250565b6000612321601083611539565b915061232c826122eb565b602082019050919050565b6000602082019050818103600083015261235081612314565b905091905056fea26469706673582212203a2b04974dd54fada54527d365c2e06a4d7dbc48584e8b74d80c664723c9c9b764736f6c63430008090033",
  "linkReferences": {},
  "deployedLinkReferences": {}
}