{
  "_format": "hh-sol-artifact-1",
  "contractName": "TokenFactory",
  "sourceName": "contracts/TokenFactory.sol",
  "abi": [
    {
      "inputs": [
        {
          "internalType": "uint256",
          "name": "_serviceFee",
          "type": "uint256"
        }
      ],
      "stateMutability": "nonpayable",
      "type": "constructor"
    },
    {
      "anonymous": false,
      "inputs": [
        {
          "indexed": true,
          "internalType": "address",
          "name": "previousOwner",
          "type": "address"
        },
        {
          "indexed": true,
          "internalType": "address",
          "name": "newOwner",
          "type": "address"
        }
      ],
      "name": "OwnershipTransferred",
      "type": "event"
    },
    {
      "anonymous": false,
      "inputs": [
        {
          "indexed": false,
          "internalType": "address",
          "name": "newTokenAddress",
          "type": "address"
        }
      ],
      "name": "TokenCreated",
      "type": "event"
    },
    {
      "inputs": [
        {
          "internalType": "address",
          "name": "libraryAddress_",
          "type": "address"
        },
        {
          "internalType": "string",
          "name": "name_",
          "type": "string"
        },
        {
          "internalType": "string",
          "name": "symbol_",
          "type": "string"
        },
        {
          "internalType": "uint8",
          "name": "decimals_",
          "type": "uint8"
        },
        {
          "internalType": "uint256",
          "name": "totalSupply_",
          "type": "uint256"
        }
      ],
      "name": "createERC20",
      "outputs": [],
      "stateMutability": "payable",
      "type": "function"
    },
    {
      "inputs": [],
      "name": "owner",
      "outputs": [
        {
          "internalType": "address",
          "name": "",
          "type": "address"
        }
      ],
      "stateMutability": "view",
      "type": "function"
    },
    {
      "inputs": [],
      "name": "renounceOwnership",
      "outputs": [],
      "stateMutability": "nonpayable",
      "type": "function"
    },
    {
      "inputs": [],
      "name": "serviceFee",
      "outputs": [
        {
          "internalType": "uint256",
          "name": "",
          "type": "uint256"
        }
      ],
      "stateMutability": "view",
      "type": "function"
    },
    {
      "inputs": [
        {
          "internalType": "address",
          "name": "newOwner",
          "type": "address"
        }
      ],
      "name": "transferOwnership",
      "outputs": [],
      "stateMutability": "nonpayable",
      "type": "function"
    },
    {
      "inputs": [
        {
          "internalType": "uint256",
          "name": "amount",
          "type": "uint256"
        }
      ],
      "name": "withdraw",
      "outputs": [],
      "stateMutability": "nonpayable",
      "type": "function"
    }
  ],
  "bytecode": "0x608060405234801561001057600080fd5b50604051610bcc380380610bcc83398181016040528101906100329190610162565b61004e61004361005b60201b60201c565b61006360201b60201c565b806001819055505061018f565b600033905090565b60008060009054906101000a900473ffffffffffffffffffffffffffffffffffffffff169050816000806101000a81548173ffffffffffffffffffffffffffffffffffffffff021916908373ffffffffffffffffffffffffffffffffffffffff1602179055508173ffffffffffffffffffffffffffffffffffffffff168173ffffffffffffffffffffffffffffffffffffffff167f8be0079c531659141344cd1fd0a4f28419497f9722a3daafe3b4186f6b6457e060405160405180910390a35050565b600080fd5b6000819050919050565b61013f8161012c565b811461014a57600080fd5b50565b60008151905061015c81610136565b92915050565b60006020828403121561017857610177610127565b5b60006101868482850161014d565b91505092915050565b610a2e8061019e6000396000f3fe6080604052600436106100555760003560e01c806306e429701461005a5780632e1a7d4d14610076578063715018a61461009f5780638abdf5aa146100b65780638da5cb5b146100e1578063f2fde38b1461010c575b600080fd5b610074600480360381019061006f91906106a1565b610135565b005b34801561008257600080fd5b5061009d60048036038101906100989190610754565b6101f4565b005b3480156100ab57600080fd5b506100b46101ff565b005b3480156100c257600080fd5b506100cb610213565b6040516100d89190610790565b60405180910390f35b3480156100ed57600080fd5b506100f6610219565b60405161010391906107ba565b60405180910390f35b34801561011857600080fd5b50610133600480360381019061012e91906107d5565b610242565b005b6000610140866102c6565b90508073ffffffffffffffffffffffffffffffffffffffff16639cc850e833878787876040518663ffffffff1660e01b8152600401610183959493929190610899565b600060405180830381600087803b15801561019d57600080fd5b505af11580156101b1573d6000803e3d6000fd5b505050507f2e2b3f61b70d2d131b2a807371103cc98d51adcaa5e9a8f9c32658ad8426e74e816040516101e491906107ba565b60405180910390a1505050505050565b6101fc610330565b50565b610207610330565b61021160006103ae565b565b60015481565b60008060009054906101000a900473ffffffffffffffffffffffffffffffffffffffff16905090565b61024a610330565b600073ffffffffffffffffffffffffffffffffffffffff168173ffffffffffffffffffffffffffffffffffffffff1614156102ba576040517f08c379a00000000000000000000000000000000000000000000000000000000081526004016102b19061096c565b60405180910390fd5b6102c3816103ae565b50565b6000808260601b90506040517f3d602d80600a3d3981f3363d3d373d3d3d363d7300000000000000000000000081528160148201527f5af43d82803e903d91602b57fd5bf3000000000000000000000000000000000060288201526037816000f092505050919050565b610338610472565b73ffffffffffffffffffffffffffffffffffffffff16610356610219565b73ffffffffffffffffffffffffffffffffffffffff16146103ac576040517f08c379a00000000000000000000000000000000000000000000000000000000081526004016103a3906109d8565b60405180910390fd5b565b60008060009054906101000a900473ffffffffffffffffffffffffffffffffffffffff169050816000806101000a81548173ffffffffffffffffffffffffffffffffffffffff021916908373ffffffffffffffffffffffffffffffffffffffff1602179055508173ffffffffffffffffffffffffffffffffffffffff168173ffffffffffffffffffffffffffffffffffffffff167f8be0079c531659141344cd1fd0a4f28419497f9722a3daafe3b4186f6b6457e060405160405180910390a35050565b600033905090565b6000604051905090565b600080fd5b600080fd5b600073ffffffffffffffffffffffffffffffffffffffff82169050919050565b60006104b98261048e565b9050919050565b6104c9816104ae565b81146104d457600080fd5b50565b6000813590506104e6816104c0565b92915050565b600080fd5b600080fd5b6000601f19601f8301169050919050565b7f4e487b7100000000000000000000000000000000000000000000000000000000600052604160045260246000fd5b61053f826104f6565b810181811067ffffffffffffffff8211171561055e5761055d610507565b5b80604052505050565b600061057161047a565b905061057d8282610536565b919050565b600067ffffffffffffffff82111561059d5761059c610507565b5b6105a6826104f6565b9050602081019050919050565b82818337600083830152505050565b60006105d56105d084610582565b610567565b9050828152602081018484840111156105f1576105f06104f1565b5b6105fc8482856105b3565b509392505050565b600082601f830112610619576106186104ec565b5b81356106298482602086016105c2565b91505092915050565b600060ff82169050919050565b61064881610632565b811461065357600080fd5b50565b6000813590506106658161063f565b92915050565b6000819050919050565b61067e8161066b565b811461068957600080fd5b50565b60008135905061069b81610675565b92915050565b600080600080600060a086880312156106bd576106bc610484565b5b60006106cb888289016104d7565b955050602086013567ffffffffffffffff8111156106ec576106eb610489565b5b6106f888828901610604565b945050604086013567ffffffffffffffff81111561071957610718610489565b5b61072588828901610604565b935050606061073688828901610656565b92505060806107478882890161068c565b9150509295509295909350565b60006020828403121561076a57610769610484565b5b60006107788482850161068c565b91505092915050565b61078a8161066b565b82525050565b60006020820190506107a56000830184610781565b92915050565b6107b4816104ae565b82525050565b60006020820190506107cf60008301846107ab565b92915050565b6000602082840312156107eb576107ea610484565b5b60006107f9848285016104d7565b91505092915050565b600081519050919050565b600082825260208201905092915050565b60005b8381101561083c578082015181840152602081019050610821565b8381111561084b576000848401525b50505050565b600061085c82610802565b610866818561080d565b935061087681856020860161081e565b61087f816104f6565b840191505092915050565b61089381610632565b82525050565b600060a0820190506108ae60008301886107ab565b81810360208301526108c08187610851565b905081810360408301526108d48186610851565b90506108e3606083018561088a565b6108f06080830184610781565b9695505050505050565b7f4f776e61626c653a206e6577206f776e657220697320746865207a65726f206160008201527f6464726573730000000000000000000000000000000000000000000000000000602082015250565b600061095660268361080d565b9150610961826108fa565b604082019050919050565b6000602082019050818103600083015261098581610949565b9050919050565b7f4f776e61626c653a2063616c6c6572206973206e6f7420746865206f776e6572600082015250565b60006109c260208361080d565b91506109cd8261098c565b602082019050919050565b600060208201905081810360008301526109f1816109b5565b905091905056fea2646970667358221220fc2354cf6665b33a24cc3c3137ae05958eeac560a825f545d7b3bc90fae6c36064736f6c63430008090033",
  "linkReferences": {},
  "deployedLinkReferences": {}
}